:020000040800F2
:10000000F0590020290200084D3D000895390008EC
:10001000493D00086D050008594C0008000000002B
:10002000000000000000000000000000313E000859
:10003000D105000800000000C13D0008A13E0008F5
:10004000430200084302000843020008430200087C
:10005000430200084302000843020008430200086C
:10006000430200084302000843020008430200085C
:10007000430200084302000843020008430200084C
:10008000430200084302000843020008430200083C
:1000900071050008810500084302000843020008BA
:1000A00043020008953F000843020008430200088D
:1000B000A53F0008B53F00084302000843020008BE
:1000C00043020008430200084302000843020008FC
:1000D00043020008494C000843020008430200089C
:1000E000D505000843020008430200084302000847
:1000F00043020008430200084302000843020008CC
:1001000043020008430200084302000843020008BB
:1001100043020008430200084302000843020008AB
:10012000430200084302000843020008430200089B
:100130004302000800000000000000004302000825
:10014000430200084302000843020008430200087B
:10015000430200084302000843020008430200086B
:10016000430200084302000843020008430200085B
:1001700043020008430200080000000000000000E5
:10018000430200084302000800F002F800F03CF8C7
:100190000AA090E8000C82448344AAF10107DA45E2
:1001A00001D100F031F8AFF2090EBAE80F0013F0F8
:1001B000010F18BFFB1A43F001031847547A0000DF
:1001C000747A0000103A24BF78C878C1FAD8520770
:1001D00024BF30C830C144BF04680C6070470000C1
:1001E0000023002400250026103A28BF78C1FBD840
:1001F000520728BF30C148BF0B6070471FB507F0DA
:10020000B5FC1FBD10B510BD00F04FF91146FFF74A
:10021000F5FF04F023FE00F06DF903B4FFF7F2FFE1
:1002200003BC00F075F90000094880470948004701
:10023000FEE7FEE7FEE7FEE7FEE7FEE7FEE7FEE796
:10024000FEE7FEE704480549054A064B70470000F3
:10025000813F000889010008F04D0020F05900207E
:10026000F0550020F055002053EA020C00F06980A0
:100270002DE9F04B4FF00006002B1FBFB3FA83F5BA
:1002800003FA05F424FA05F65E4012BF1643B2FAEB
:1002900082F502FA05F4C5F120051EBF22FA05FC1D
:1002A00044EA0C04203556EA044C4FEA144418BFC3
:1002B000641C4FF000084FF00009904271EB030CF2
:1002C00039D3002919BFB1FA81F701FA07F6B0FA5C
:1002D00080F700FA07F6C7F120071EBF20FA07FCD7
:1002E00046EA0C062037B6FBF4FCA7EB0507103FE7
:1002F00007F01F0BCBF120062CFA06F60CFA0BFBCD
:1003000044BFB3460026202FA4BF5E464FF0000B2B
:100310005BEA060C08BF4FF0010B19EB0B0948EB29
:100320000608ABFB027C06FB02CC0BFB03CCC01B1C
:1003300071EB0C01C1E70B46024641464846BDE859
:10034000F08B13B5084318BF4FF0FF300146AFF3F1
:100350000080BDE81C407047032A40F2308010F056
:10036000030C00F0158011F8013BBCF1020F624450
:1003700098BF11F801CB00F8013B38BF11F8013BE1
:10038000A2F1040298BF00F801CB38BF00F8013B8E
:1003900011F0030300F05780083AC0F0088051F8CC
:1003A000043B083A51F804CBA0E80810F5E7121D09
:1003B0005CBF51F8043B40F8043BAFF30080D20728
:1003C00024BF11F8013B11F801CB48BF11F8012BF4
:1003D00024BF00F8013B00F801CB48BF00F8012B17
:1003E000704702F0FF0343EA032242EA024200F0B0
:1003F00002B84FF0000200B51346944696462039E5
:1004000022BFA0E80C50A0E80C50B1F12001BFF4CD
:10041000F7AF090728BFA0E80C5048BF0CC05DF833
:1004200004EB890028BF40F8042B08BF704748BF81
:1004300020F8022B11F0804F18BF00F8012B7047F5
:1004400070477047704710B5203AC0F00B80B1E894
:100450001850A0E81850B1E81850A0E81850203AF9
:10046000BFF4F5AF5FEA027C24BFB1E81850A0E802
:10047000185044BF18C918C0BDE810405FEA827C1C
:1004800024BF51F8043B40F8043B08BF7047D20733
:1004900028BF31F8023B48BF11F8012B28BF20F8D4
:1004A000023B48BF00F8012B7047754600F02CF85E
:1004B000AE4605006946534620F00700854618B051
:1004C00020B5FFF7BFFEBDE820404FF000064FF01B
:1004D00000074FF000084FF0000BAC46ACE8C00935
:1004E000ACE8C009ACE8C009ACE8C00921F00701DC
:1004F0008D46704710B50446AFF300802046BDE836
:100500001040FFF78ABE0000004870471800002026
:1005100001491820ABBEFEE726000200704700002C
:1005200080B582B0019004F081FCFFE740F23C30DE
:10053000C2F20000007860B1FFE740F23C30C2F246
:1005400000000090007804F04BFC00990020087037
:10055000FFE7002005F08CFE800040F23831C2F247
:10056000000108600A2004F0B9FCDFE7FFE7FEE7BE
:1005700080B540F24430C2F2000000F0E9FA80BDDC
:1005800080B540F24430C2F2000000F0E1FA80BDD4
:1005900080B584B003908DF80B100192039840F25F
:1005A0001831C2F20001086000208860C8609DF820
:1005B0000B200A610875019A40F24430C2F2000033
:1005C00040F23033C2F2000300F038F804B080BDCE
:1005D0007047000080B54FF4806000F0ADFF80BD33
:1005E00072B6FFE7FEE7000084B002900191029826
:1005F00090F820008DF803009DF80300012805D035
:10060000FFE79DF8030002280AD1FFE7019A02984C
:10061000016848691043486100208DF80F0008E028
:100620000299486A40F48020486201208DF80F004A
:10063000FFE79DF80F0004B07047000088B00690F7
:10064000059104920393069890F820008DF8070016
:1006500006980068806800900598806808B9FFE7F0
:1006600000E0FFE79DF80700012806D0FFE79DF8AE
:100670000700022840F08080FFE79DF80300400754
:1006800000280CD4FFE79DF803000007002806D4DB
:10069000FFE79DF80300C006002864D5FFE7009837
:1006A000C0F301600290029901208840039908601C
:1006B0000598806868B9FFE705980168C06840EA56
:1006C000415006990968029A01EB0211C1F88001B4
:1006D0000EE005994A688868C96840EAC200084384
:1006E00006990968029A01EB0211C1F88001FFE73F
:1006F0000598006906990968029A01EB0211C1F890
:1007000084010598007D01280CD1FFE70698006858
:10071000029900EB0111D1F8840140F48070C1F816
:100720008401FFE70498406806990968029A01EB82
:100730000211C1F88C010498006806990968029AB0
:1007400001EB0211C1F8880106980068029900EBDC
:100750000111D1F8800140F00100C1F880010020B2
:100760008DF81F0011E00699486A40F400104862B5
:1007700001208DF81F0008E00699486A40F48020A7
:10078000486201208DF81F00FFE79DF81F0008B0A8
:100790007047000086B004900391049890F8200000
:1007A0008DF803009DF80300012806D0FFE79DF8AF
:1007B0000300022840F0B080FFE746F20040C4F298
:1007C000000001900199D1F8000240F00100C1F849
:1007D00000020199D1F8000220F47C50C1F8000217
:1007E0000398426A0199D1F8000240EA0220C1F858
:1007F00000020398406900F01F0101208840029028
:10080000029A0199D1F81C029043C1F81C02039886
:10081000C069F0B9FFE7029A0199D1F80C02904340
:10082000C1F80C02039A9088D168526940EA0140ED
:10083000019901EBC201C1F84002039A1088916846
:10084000526940EA0140019901EBC201C1F844023A
:10085000FFE70398C06901281ED1FFE7029A0199BA
:10086000D1F80C021043C1F80C02039A9088116869
:10087000526940EA0140019901EBC201C1F840020E
:10088000039A90899168526940EA0140019901EB0D
:10089000C201C1F84402FFE70398806940B9FFE74D
:1008A000029A0199D1F804029043C1F8040207E0CA
:1008B000029A0199D1F804021043C1F80402FFE73B
:1008C0000398006940B9FFE7029A0199D1F8140230
:1008D0009043C1F8140207E0029A0199D1F814027A
:1008E0001043C1F81402FFE70398006A012808D1F9
:1008F000FFE7029A0199D1F81C021043C1F81C02CB
:10090000FFE70199D1F8000220F00100C1F80002D0
:1009100000208DF8170008E00499486A40F4802010
:10092000486201208DF81700FFE79DF8170006B018
:100930007047000081B0009001B0704786B004900D
:10094000039102920193049890F820008DF803001F
:100950009DF80300012806D0FFE79DF80300022858
:1009600040F0E880FFE7039880B9FFE7049800684B
:10097000C068800748B9FFE70499486A40F400104E
:10098000486201208DF81700DDE00FE00498006850
:100990000069800748B9FFE70499486A40F40010ED
:1009A000486201208DF81700CDE0FFE70498006849
:1009B000039900EB0110D0F8B00100F00400029997
:1009C00088600298806858B9FFE704980068039926
:1009D00000EB0110D0F8B001400D029908600AE068
:1009E00004980068039900EB0110D0F8B001C0082A
:1009F00002994860FFE704980068039900EB011032
:100A0000D0F8B00100F002000299C86004980068B4
:100A1000039900EB0110D0F8B40100F00F00082892
:100A200004D3FFE70299082008610BE004980068EE
:100A3000039900EB0110D0F8B40100F00F00029907
:100A40000861FFE704980068039900EB0110D0F8F3
:100A5000B40180B2000A0299886104980068039981
:100A600000EB0110D0F8B401000C02994861049821
:100A70000068039900EB0110D0F8B80101990870E3
:100A800004980068039900EB0110D0F8B801000A3F
:100A90000199487004980068039900EB0110D0F8A0
:100AA000B801000C0199887004980068039900EB64
:100AB0000110D0F8B801000E0199C87004980068C0
:100AC000039900EB0110D0F8BC010199087104985A
:100AD0000068039900EB0110D0F8BC01000A0199ED
:100AE000487104980068039900EB0110D0F8BC012C
:100AF000000C0199887104980068039900EB0110BB
:100B0000D0F8BC01000E0199C871039838B9FFE70D
:100B100004980168C86840F02000C86006E00498A6
:100B20000168086940F020000861FFE700208DF8A7
:100B3000170008E00499486A40F4802048620120C8
:100B40008DF81700FFE79DF8170006B0704700000A
:100B500080B58AB009900020089009980068406923
:100B600007900998006840680690099800688068B6
:100B7000059009980068C0680490099800680069A9
:100B8000039009980068806902909DF81C00C007D6
:100B9000002800F09480FFE79DF81400C00758B3C8
:100BA000FFE709980168012088609DF8140080071C
:100BB000002804D5FFE7099800F0DAFB1BE09DF858
:100BC00014004007002805D5FFE7089840F40060AE
:100BD00008900FE09DF814000007002805D5FFE7F6
:100BE000089840F48050089003E0099800F0BCFB9E
:100BF000FFE7FFE7FFE7FFE79DF81500C00760B3D9
:100C0000FFE7099801684FF4807088609DF815002F
:100C10008007002804D5FFE7099800F0B1FB1BE02E
:100C20009DF815004007002805D5FFE7089840F417
:100C3000005008900FE09DF815000007002805D52A
:100C4000FFE7089840F48040089003E0099800F01E
:100C500093FBFFE7FFE7FFE7FFE79DF81600C007FC
:100C600060B3FFE7099801684FF4803088609DF811
:100C700016008007002804D5FFE7099800F088FBDC
:100C80001BE09DF816004007002805D5FFE70898EF
:100C900040F4004008900FE09DF81600000700287F
:100CA00005D5FFE7089840F48030089003E00998E4
:100CB00000F06AFBFFE7FFE7FFE7FFE7FFE79DF8CC
:100CC0001C000007002810D5FFE79DF81000C006A3
:100CD000002809D5FFE7089840F4007008900998AB
:100CE00001681020C860FFE7FFE79DF81C0040077F
:100CF00000280FD5FFE79DF810000007002808D551
:100D0000FFE7099801680820C860099800F066FAB2
:100D1000FFE7FFE79DF81C00800700280BD5FFE7E1
:100D200009980068C068800720B1FFE7099800F0C3
:100D300059FAFFE7FFE79DF81C004006002810D590
:100D4000FFE79DF80C00C006002809D5FFE70898CA
:100D500040F4806008900998016810200861FFE75E
:100D6000FFE79DF81C00800600280FD5FFE79DF8DF
:100D70000C000007002808D5FFE709980168082043
:100D80000861099800F09EFAFFE7FFE79DF81C0054
:100D9000C00600280BD5FFE70998006800698007A6
:100DA00020B1FFE7099800F091FAFFE7FFE79DF80F
:100DB0001E00800700280FD5FFE79DF81800C00629
:100DC000002808D5FFE709980168102048600998B5
:100DD00000F080FAFFE7FFE79DF81E00C00778B13A
:100DE000FFE79DF818000007002808D5FFE70998DD
:100DF000016808204860099800F0CEFAFFE7FFE795
:100E00009DF81D000006002840F18D80FFE79DF849
:100E100018004007002840F18180FFE79DF81D0081
:100E2000C00750B1FFE79DF80800C00728B1FFE7F1
:100E3000089840F001000890FFE79DF81D0080072A
:100E400000280BD5FFE79DF808008007002805D58E
:100E5000FFE7089840F002000890FFE79DF81D00AA
:100E6000400700280BD5FFE79DF808004007002841
:100E700005D5FFE7089840F004000890FFE79DF8CB
:100E80001D000007002848D5FFE79DF8080010F076
:100E9000700F42D0FFE7029800F070000146019108
:100EA000102814D0FFE70198202815D0FFE70198FB
:100EB000302816D0FFE70198402817D0FFE70198A7
:100EC000502818D0FFE70198602819D01DE0089835
:100ED00040F00800089019E0089840F010000890D1
:100EE00014E0089840F0200008900FE0089840F0C7
:100EF000400008900AE0089840F08000089005E063
:100F0000089840F48070089000E0FFE709980168B5
:100F1000886920F070008861FFE7FFE709980168A1
:100F200004204860FFE7089848B1FFE7089A09994C
:100F3000486A104348620998FFF7FCFCFFE70AB0D3
:100F400080BD000080B584B00290029820B9FFE710
:100F500001208DF80F00E0E0029890F8200020B901
:100F6000FFE7029800F0DEF8FFE7029801680868E2
:100F700040F00100086000F0EFFC0190FFE70298EC
:100F800000684068C007A8B9FFE700F0E5FC0199D8
:100F9000401A0B280DD3FFE70299486A40F400304D
:100FA00048620299052081F8200001208DF80F0089
:100FB000B3E0E4E702980168086820F002000860E6
:100FC00000F0CAFC0190FFE70298006840688007C3
:100FD000002815D5FFE700F0BFFC0199401A0B2847
:100FE0000DD3FFE70299486A40F400304862029945
:100FF000052081F8200001208DF80F008DE0E3E747
:101000000298007E012807D1FFE70298016808686E
:1010100040F08000086006E002980168086820F04F
:1010200080000860FFE70298407E012807D1FFE7B3
:1010300002980168086840F04000086006E00298E5
:101040000168086820F040000860FFE70298807E91
:10105000012807D1FFE702980168086840F02000E6
:10106000086006E002980168086820F02000086027
:10107000FFE70298C07E012807D1FFE702980168C8
:10108000086820F01000086006E00298016808680F
:1010900040F010000860FFE70298007F012807D1A8
:1010A000FFE702980168086840F00800086006E061
:1010B00002980168086820F008000860FFE70298BD
:1010C000407F012807D1FFE702980168086840F0D7
:1010D0000400086006E002980168086820F0040037
:1010E0000860FFE7029B19685A689868D3F80CC03B
:1010F00040EA0C00D3F810C040EA0C005B691843CA
:10110000013A1043C861029900204862029A012105
:1011100082F820108DF80F00FFE79DF80F0004B053
:1011200080BD000080B58CB00B9000200A90099023
:101130000890079006900B98006846F20041C4F2B0
:101140000001884248D1FFE7FFE70020059043F601
:101150004000C4F20200016841F0007101600068C3
:1011600000F0007005900598FFE7FFE7002004906D
:1011700043F63000C4F20200016841F00101016051
:10118000006800F0010004900498FFE74FF4C0509D
:1011900006900220079000200290089003200990FA
:1011A00009200A900020C4F2020006A900F0E0F92C
:1011B000029A142000900521019100F0A1FC0098F2
:1011C00000F094FC0199029A1520039000F098FC1D
:1011D000039800F08BFCFFE70CB080BD81B000905D
:1011E00001B0704780B582B001900198006846F266
:1011F0000041C4F20001884201D0FFE75FE001989E
:1012000040F2E822C2F2000240F2E023C2F2000300
:101210000021FFF793FB08B1FFE750E040F2E82020
:10122000C2F200008068042821D1FFE740F2E820E4
:10123000C2F20000406840F20111C0F20121884270
:1012400015D1FFE740F2E820C2F20000006904284F
:101250000DD1FFE740F2E020C2F20000006844F642
:10126000E851C2F20001086002F0FCFD27E040F204
:10127000E820C2F20000806804281FD1FFE740F296
:10128000E820C2F20000406840F20211C0F20121E1
:10129000884213D1FFE740F2E820C2F20000006963
:1012A00001280BD1FFE740F2E020C2F200000078F5
:1012B00040F23C31C2F200010870FFE7FFE702B0E4
:1012C00080BD000081B0009001B0704781B00090F7
:1012D00001B0704781B0009001B0704780B584B014
:1012E0000290029890F8200001282FD1FFE7029980
:1012F000022081F8200002980168086820F00100AF
:10130000086000F029FB0190FFE702980068406840
:10131000C007A8B1FFE700F01FFB0199401A0B2896
:101320000DD3FFE70299486A40F400304862029901
:10133000052081F8200001208DF80F000FE0E4E780
:101340000299002048628DF80F0008E00299486A6F
:1013500040F40020486201208DF80F00FFE79DF85F
:101360000F0004B080BD000081B0009001B0704754
:1013700081B0009001B0704781B0009001B070471B
:1013800081B0009001B0704781B0009001B070470B
:1013900081B0009001B0704781B0009001B07047FB
:1013A00080B584B002900298806D019000F0D4FA6C
:1013B0000090029890F8350002280DD0FFE70299BE
:1013C00080204865FFE70299002081F83400FFE79C
:1013D00001208DF80F0055E002980168086820F0A0
:1013E0001600086002980168486920F08000486192
:1013F0000298006C20B9FFE70298806C38B1FFE7D3
:1014000002980168086820F008000860FFE7029869
:101410000168086820F001000860FFE70298006892
:101420000068C007C8B1FFE700F096FA0099401ABB
:10143000062811D3FFE7029920204865029903206E
:1014400081F83500FFE70299002081F83400FFE7BA
:1014500003208DF80F0015E0E0E70298C16D3F20F2
:101460008840019988600299012081F83500FFE7E2
:101470000299002081F83400FFE7FFE700208DF893
:101480000F00FFE79DF80F0004B080BD82B0009010
:10149000009890F83500022807D0FFE700998020D7
:1014A000486501208DF807000EE00099052081F8BD
:1014B000350000980168086820F001000860FFE727
:1014C00000208DF80700FFE79DF8070002B0704785
:1014D00080B584B0039000F03FFA02900398019029
:1014E0000198013048B1FFE740F20C00C2F2000061
:1014F0000178019808440190FFE7FFE700F02CFA1B
:101500000299401A0199884201D2FFE7F6E704B038
:1015100080BD000081B0ADF80200BDF80200B0F55A
:10152000806F07D1FFE740F2D821C2F2000101200D
:101530000870FFE701B0704780B582B0ADF80600D3
:1015400043F61440C4F201000068BDF806100842DA
:101550000CD0FFE7BDF8060043F61441C4F20101C8
:101560000860BDF80600FFF7D5FFFFE702B080BDB9
:101570008EB00D900C9100200A90099008900B906D
:10158000FFE70B980F2800F2CC81FFE70B990120B1
:1015900088400A900C9800680A99084009900998B8
:1015A0000A99884240F0B881FFE70C98406800F043
:1015B0000300012807D0FFE70C98406800F0030003
:1015C00002282FD1FFE70D98806808900B98410002
:1015D000032000FA01F10898884308900C98C0682D
:1015E0000B99490000FA01F10898084308900898FF
:1015F0000D9988600D98406808900B99012000FAB9
:1016000001F10898884308900C984068C0F30010D6
:101610000B9900FA01F108980843089008980D9971
:101620004860FFE70C98406800F00300032818D0DA
:10163000FFE70D98C06808900B984100032000FA5E
:1016400001F10898884308900C9880680B9949002C
:1016500000FA01F108980843089008980D99C860AD
:10166000FFE70C98406800F00300022826D1FFE74E
:101670000D980B996FF0030202EA51010844006AC9
:1016800008900B9800F0070081000F2000FA01F18C
:101690000898884308900C9800690B9901F007019D
:1016A000890000FA01F108980843089008980D99FC
:1016B0000B9B02EA530211440862FFE70D98006891
:1016C00008900B984100032000FA01F10898884324
:1016D00008900C98406800F003000B99490000FA4C
:1016E00001F108980843089008980D9908600C9833
:1016F00080798007002800F00E81FFE7FFE70020D7
:10170000079043F64400C4F20200016841F48041AE
:101710000160006800F4804007900798FFE70B988D
:1017200020F0030043F60801C4F20101405808907C
:101730000B9800F0030081000F2000FA01F10898D7
:10174000884308900D980021C4F20201884203D119
:10175000FFE7002006905EE00D9840F20041C4F2E1
:101760000201884203D1FFE70120059050E00D9867
:1017700040F60001C4F20201884203D1FFE70220D3
:10178000049042E00D9840F60041C4F20201884204
:1017900003D1FFE70320039034E00D9841F20001EC
:1017A000C4F20201884203D1FFE70420029026E040
:1017B0000D9841F20041C4F20201884203D1FFE7D3
:1017C0000520019018E00D9841F60001C4F20201D5
:1017D000884203D1FFE7062000900AE00D9941F608
:1017E0000042C4F202020820914208BF0720009084
:1017F000FFE700980190FFE701980290FFE7029849
:101800000390FFE703980490FFE704980590FFE733
:1018100005980690FFE70698C0B20B9901F0030106
:10182000890000FA01F108980843089008980B997C
:1018300021F0030143F60802C4F20102885043F686
:101840000840C4F20100006808900999089888438C
:1018500008900C988079C006002805D5FFE7099903
:10186000089808430890FFE7089843F60841C4F237
:101870000101086043F60C40C4F2010000680890C2
:1018800009990898884308900C9880798006002868
:1018900005D5FFE70999089808430890FFE70898DD
:1018A00043F60C41C4F20101086043F60440C4F25F
:1018B00001000068089009990898884308900C98DE
:1018C00080798007002805D5FFE709990898084323
:1018D0000890FFE7089843F60441C4F2010108604C
:1018E00043F60040C4F20100006808900999089886
:1018F000884308900C988079C00728B1FFE70999C0
:10190000089808430890FFE7089843F60041C4F29E
:1019100001010860FFE7FFE7FFE70B9801300B903C
:101920002FE60EB07047000082B00190ADF80210B3
:101930008DF801209DF8010028B1FFE7BDF80200F5
:101940000199886105E0BDF80200000401998861F1
:10195000FFE702B07047000044F20860C2F20000E6
:101960000068704740F20C00C2F20000027844F2B6
:101970000861C2F200010868104408607047000066
:1019800080B543F60041C4F20201086840F40070DB
:101990000860086840F480600860086840F480705F
:1019A0000860032000F0C6F80F2000F005F800F0F2
:1019B00071F8002080BD000080B58CB00B90002035
:1019C00005900490FFE70020019043F64400C4F224
:1019D0000200016841F001010160006800F00100AF
:1019E00001900198FFE706A803A900F0DDF900F0D7
:1019F0001DFA4000059005984DF68361C4F21B3135
:101A0000A0FB01014FF0FF3000EB9140049040F249
:101A10006C30C2F200000021C4F20101016040F20A
:101A2000E731C160049941600021016181608161F9
:101A300000F07CFE8DF80B009DF80B0028BBFFE743
:101A400040F26C30C2F2000000F00AFF8DF80B008B
:101A50009DF80B00C0B9FFE7192000F047F80B987C
:101A60000F280CD8FFE70B991920002200F048F846
:101A70000B9840F21001C2F20001086003E001205F
:101A80008DF80B00FFE7FFE7FFE79DF80B000CB0B8
:101A900080BD000080B582B0FFE70020019043F6D2
:101AA0004400C4F20200016841F480410160006812
:101AB00000F4804001900198FFE7FFE700200090CC
:101AC00043F64000C4F20200016841F08051016019
:101AD000006800F0805000900098FFE76FF0010070
:101AE0000F21002200F00CF802B080BD80B582B05A
:101AF0008DF807009DF9070003F0F0F802B080BDF3
:101B000080B586B08DF817000491039200200290F2
:101B100003F0FCF802909DF91700019002980499D7
:101B2000039A02F015F90146019803F0F7F806B0A0
:101B300080BD000080B582B00190019803F032F9B9
:101B400002B080BD80B584B002900191029820B9A6
:101B5000FFE701208DF80F0021E1019843F60041D5
:101B6000C4F20201096801F00701884212D9FFE7B7
:101B7000019943F60040C4F202000170006800F0D1
:101B800007000199884204D0FFE701208DF80F007B
:101B900005E1FFE702980078800700282AD5FFE7D3
:101BA000029800784007002809D5FFE743F60801AE
:101BB000C4F20201086840F4E0500860FFE70298B0
:101BC00000780007002809D5FFE743F60801C4F2B2
:101BD0000201086840F460400860FFE743F608012E
:101BE000C4F20201086820F0F000029A92681043E3
:101BF0000860FFE702980078C00700286ED0FFE772
:101C000002984068012811D1FFE743F60000C4F2B2
:101C10000200006800F400310020B0EB514F04D105
:101C2000FFE701208DF80F00B9E02CE00298406832
:101C3000022805D0FFE702984068032811D1FFE78A
:101C400043F60000C4F20200006800F000710020BA
:101C5000B0EB516F04D1FFE701208DF80F009EE03B
:101C600010E043F60000C4F20200006800F0020138
:101C70000020B0EB510F04D1FFE701208DF80F00D9
:101C80008DE0FFE7FFE743F60801C4F202010868B0
:101C900020F00300029A526810430860FFF75CFED0
:101CA0000090FFE743F60800C4F20200006800F06D
:101CB0000C0002994968B0EB810F0ED0FFE7FFF7E7
:101CC0004BFE0099401A41F28931884204D3FFE764
:101CD00003208DF80F0062E0E4E7FFE7019843F688
:101CE0000041C4F20201096801F00701884212D2E2
:101CF000FFE7019943F60040C4F20200017000685A
:101D000000F007000199884204D0FFE701208DF818
:101D10000F0044E0FFE702980078400700280CD548
:101D2000FFE743F60801C4F20201086820F4E0501E
:101D3000029AD26810430860FFE702980078000713
:101D400000280DD5FFE743F60801C4F20201086838
:101D500020F46040029A126940EAC2000860FFE77E
:101D600000F076F843F60801C4F202010968C9B22E
:101D70000A0947F68631C0F60001895CC84040F286
:101D80000001C2F20001086040F21000C2F200003F
:101D90000068FFF711FE00208DF80F00FFE79DF8A7
:101DA0000F0004B080BD000082B001900091019945
:101DB0000F20086043F60800C4F20200016801F039
:101DC0000301019A5160016801F0F001019A9160EC
:101DD000016801F4E051019AD160006800F46040AC
:101DE000C0080199086143F60040C4F2020000688F
:101DF00000F007000099086002B0704740F2000050
:101E0000C2F200000068704780B5FFF7F7FF43F6A5
:101E10000801C4F202010968C1F3822247F6963133
:101E2000C0F60001895CC84080BD000080B5FFF7A6
:101E3000E5FF43F60801C4F20201096889B24A0BC2
:101E400047F69631C0F60001895CC84080BD0000AD
:101E500080B586B00020059004900390029043F670
:101E60000800C4F20200006800F00C000146019175
:101E700040B1FFE7019804280AD0FFE7019808283D
:101E80000CD04FE042F20040C0F2F40002904FE06C
:101E900047F64000C0F27D10029049E043F604008E
:101EA000C4F20200016801F03F01059100684002A0
:101EB000002813D5FFE743F60400C4F202000068CF
:101EC000C0F3881047F64001C0F27D11A0FB01016C
:101ED000059A0023FEF7C8F9049012E043F60400C7
:101EE000C4F202000068C0F3881042F20041C0F260
:101EF000F401A0FB0101059A0023FEF7B5F9049057
:101F0000FFE743F60400C4F20200006800F4403129
:101F1000022000EBD130039004980399B0FBF1F05C
:101F2000029005E042F20040C0F2F4000290FFE7A8
:101F3000029806B080BD000080B586B00490049879
:101F400020B9FFE701208DF8170050E304980078CE
:101F5000C007002800F0A580FFE743F60800C4F2A0
:101F60000200006800F00C00042813D0FFE743F6DD
:101F70000800C4F20200006800F00C0008281ED11E
:101F8000FFE743F60400C4F20200006840020028A4
:101F900015D5FFE743F60000C4F20200006800F424
:101FA00000310020B0EB514F08D0FFE704984068A3
:101FB00020B9FFE701208DF8170018E370E0FFE774
:101FC00004984068B0F5803F09D1FFE743F600016F
:101FD000C4F20201086840F48030086020E00498F0
:101FE0004068B0F5A02F0DD1FFE743F60001C4F221
:101FF0000201086840F480200860086840F48030DE
:1020000008600CE043F60001C4F20201086820F405
:1020100080300860086820F480200860FFE7FFE750
:10202000FFE704984068E8B1FFE7FFF795FC0390ED
:10203000FFE743F60000C4F20200006800F400313C
:102040000020B0EB514F0CD1FFE7FFF785FC03995F
:10205000401A652804D3FFE703208DF81700C6E275
:10206000E7E71CE0FFF778FC0390FFE743F600008A
:10207000C4F20200006800F400310020B0EB514FC0
:102080000CD0FFE7FFF768FC0399401A652804D3DA
:10209000FFE703208DF81700A9E2E7E7FFE7FFE776
:1020A000FFE7049800788007002840F19680FFE75A
:1020B00043F60800C4F20200006810F00C0F13D0C1
:1020C000FFE743F60800C4F20200006800F00C00CD
:1020D00008282CD1FFE743F60400C4F20200006890
:1020E0004002002823D4FFE743F60000C4F20200B8
:1020F000006800F002010020B0EB510F09D0FFE7AB
:102100000498C068012804D0FFE701208DF817006B
:102110006DE243F60001C4F20201086820F0F80005
:10212000049A126940EAC2000860FFE754E004988C
:10213000C06870B3FFE70021C4F2472101200860A6
:10214000FFF70AFC0390FFE743F60000C4F2020029
:10215000006800F002010020B0EB510F0CD1FFE746
:10216000FFF7FAFB0399401A032804D3FFE7032083
:102170008DF817003BE2E7E743F60001C4F20201E5
:10218000086820F0F800049A126940EAC20008606A
:1021900021E00021C4F2472100200860FFF7DCFBAA
:1021A0000390FFE743F60000C4F20200006800F06D
:1021B00002010020B0EB510F0CD0FFE7FFF7CCFB82
:1021C0000399401A032804D3FFE703208DF8170072
:1021D0000DE2E7E7FFE7FFE7FFE704980078000775
:1021E00000284BD5FFE70498406918B3FFE740F695
:1021F0008061C4F2472101200860FFF7ADFB039026
:10220000FFE743F67400C4F20200006800F0020128
:102210000020B0EB510F0CD1FFE7FFF79DFB0399B6
:10222000401A032804D3FFE703208DF81700DEE1EE
:10223000E7E722E040F68061C4F247210020086011
:10224000FFF78AFB0390FFE743F67400C4F2020035
:10225000006800F002010020B0EB510F0CD0FFE746
:10226000FFF77AFB0399401A032804D3FFE7032002
:102270008DF81700BBE1E7E7FFE7FFE70498007878
:102280004007002840F1CE80FFE700208DF80700CE
:1022900043F64000C4F202000068C000002815D4D4
:1022A000FFE7FFE70020009043F64000C4F2020081
:1022B000016841F080510160006800F0805000909A
:1022C0000098FFE701208DF80700FFE747F20000C4
:1022D000C4F200000068C005002822D4FFE747F2DE
:1022E0000001C4F20001086840F480700860FFF744
:1022F00033FB0390FFE747F20000C4F200000068E0
:10230000C00500280CD4FFE7FFF726FB0399401A0D
:10231000032804D3FFE703208DF8170067E1EAE7FD
:10232000FFE7FFE704988068012809D1FFE743F63B
:102330007001C4F20201086840F0010008601FE06B
:102340000498806805280DD1FFE743F67001C4F2B8
:102350000201086840F004000860086840F00100CD
:1023600008600CE043F67001C4F20201086820F036
:1023700001000860086820F004000860FFE7FFE73C
:10238000FFE704988068F8B1FFE7FFF7E5FA0390EC
:10239000FFE743F67000C4F20200006800F002019B
:1023A0000020B0EB510F0ED1FFE7FFF7D5FA0399EC
:1023B000401A41F28931884204D3FFE703208DF8A7
:1023C000170014E1E5E71EE0FFF7C6FA0390FFE708
:1023D00043F67000C4F20200006800F00201002021
:1023E000B0EB510F0ED0FFE7FFF7B6FA0399401A92
:1023F00041F28931884204D3FFE703208DF81700AA
:10240000F5E0E5E7FFE79DF80700012809D1FFE7C0
:1024100043F64001C4F20201086820F080500860D1
:10242000FFE7FFE704988069002800F0DC80FFE701
:1024300043F60800C4F20200006800F00C0008280F
:1024400000F08580FFE70498806902285CD1FFE7EF
:102450006021C4F2472100200860FFF77DFA039055
:10246000FFE743F60000C4F20200006800F00071CC
:102470000020B0EB516F0CD0FFE7FFF76DFA039926
:10248000401A032804D3FFE703208DF81700AEE0BD
:10249000E7E70499C869D1F820C04B6A8A6A40EA24
:1024A0000C0040EA8310D2034FF6FF739A43A2F563
:1024B00080321043C96A40EA016043F60401C4F265
:1024C000020108606021C4F2472101200860FFF783
:1024D00043FA0390FFE743F60000C4F202000068ED
:1024E00000F000710020B0EB516F0CD1FFE7FFF757
:1024F00033FA0399401A032804D3FFE703208DF829
:10250000170074E0E7E721E06021C4F247210020D2
:102510000860FFF721FA0390FFE743F60000C4F2DA
:102520000200006800F000710020B0EB516F0CD089
:10253000FFE7FFF711FA0399401A032804D3FFE7D6
:1025400003208DF8170052E0E7E7FFE74AE0049820
:102550008069012804D1FFE701208DF8170046E0CB
:1025600043F60400C4F202000068029004988069F7
:10257000012831D0FFE7029800F480000499C9696E
:10258000884229D1FFE7029800F03F000499096AC8
:10259000884221D1FFE7029847F6C07108400499AC
:1025A000496AB0EB811F17D1FFE7029800F4403071
:1025B0000499896AC9034FF6FF729143A1F58031EE
:1025C000884209D1FFE7029800F070600499C96A57
:1025D000B0EB016F04D0FFE701208DF8170006E093
:1025E000FFE7FFE7FFE700208DF81700FFE79DF802
:1025F000170006B080BD000081B0009001B07047A8
:1026000081B0009001B0704785B003900291FFE760
:10261000039890F83C00012804D1FFE702208DF8D0
:1026200013007EE00399012081F83C00FFE7FFE7FB
:102630000399022081F83D000398006840680190EA
:102640000398006880680090019820F07000019065
:10265000029801680198084301900198039909685C
:102660004860039800680021C4F2010188423CD010
:10267000FFE703980068B0F1804F36D0FFE703987A
:10268000006840F20041C4F2000188422DD0FFE70B
:102690000398006840F60001C4F20001884224D08B
:1026A000FFE70398006840F60041C4F20001884249
:1026B0001BD0FFE70398006840F20041C4F201011B
:1026C000884212D0FFE70398006844F20001C4F288
:1026D0000101884209D0FFE70398006841F6000134
:1026E000C4F2000188420ED1FFE7009820F080007C
:1026F0000090029841680098084300900098039960
:1027000009688860FFE70399012081F83D00FFE731
:102710000399002081F83C00FFE700208DF81300AA
:10272000FFE79DF8130005B07047000080B582B048
:102730000090009820B9FFE701208DF807003FE0E6
:10274000009890F83D0040B9FFE70099002081F81B
:102750003C00009800F038F8FFE70099022081F86B
:102760003D00009951F8040B01F02CFC0099012068
:1027700081F84600FFE70099012081F83E000099AA
:1027800081F83F00009981F84000009981F84100EC
:10279000FFE7FFE70099012081F84200009981F8E6
:1027A0004300009981F84400009981F84500FFE753
:1027B0000099012081F83D0000208DF80700FFE717
:1027C0009DF8070002B080BD80B586B005900598E1
:1027D0000068B0F1804F1BD1FFE7FFE700200490B5
:1027E00043F64000C4F20200016841F001010160BB
:1027F000006800F0010004900498FFE71C2002909C
:1028000005210022FFF77CF90298FFF76FF924E019
:102810000598006840F20041C4F2000188421BD1D3
:10282000FFE7FFE70020039043F64000C4F20200F8
:10283000016841F002010160006800F002000390AD
:102840000398FFE71D20019005210022FFF758F9AA
:102850000198FFF74BF9FFE7FFE706B080BD0000E6
:1028600083B00190019890F83D00012804D0FFE763
:1028700001208DF80B006AE00199022081F83D00EB
:1028800001980168C86840F00100C86001980068BC
:102890000021C4F2010188423CD0FFE701980068A2
:1028A000B0F1804F36D0FFE70198006840F2004158
:1028B000C4F2000188422DD0FFE70198006840F67D
:1028C0000001C4F20001884224D0FFE701980068AB
:1028D00040F60041C4F2000188421BD0FFE7019896
:1028E000006840F20041C4F20101884212D0FFE7C3
:1028F0000198006844F20001C4F20101884209D045
:10290000FFE70198006841F60001C4F20001884227
:1029100012D1FFE701980068806800F0070000907E
:102920000098062807D0FFE701980168086840F082
:1029300001000860FFE706E001980168086840F0C0
:1029400001000860FFE700208DF80B00FFE79DF80D
:102950000B0003B07047000080B586B0049003916F
:1029600000208DF80B00FFE7049890F83C00012848
:1029700004D1FFE702208DF81700ABE00499012095
:1029800081F83C00FFE7FFE70499022081F83D0051
:102990000498006880680190019820F07700019009
:1029A000019820F47F40019001980499096888609B
:1029B000039800680090002872D0FFE70098102864
:1029C0006ED0FFE7009820286AD0FFE700983028F3
:1029D00066D0FFE70098402855D0FFE700985028C0
:1029E00037D0FFE70098602840D0FFE700987028B4
:1029F0000BD0FFE70098B0F5805F05D0FFE70098A7
:102A0000B0F5005F16D052E055E004980068039BD3
:102A10005A689968DB6801F0C3FB04980068806815
:102A20000190019840F0770001900198049909689D
:102A3000886040E004980068039B5A689968DB68E6
:102A400001F0AEFB04980168886840F4804088601B
:102A500031E004980068039A5168D26801F05AFE88
:102A600004980068502101F0B5FB24E00498006848
:102A7000039A5168D26801F075FE049800686021DD
:102A800001F0A8FB17E004980068039A5168D26827
:102A900001F040FE04980068402101F09BFB0AE031
:102AA000049800680399096801F094FB03E0012091
:102AB0008DF80B00FFE70499012081F83D00FFE746
:102AC0000499002081F83C00FFE79DF80B008DF889
:102AD0001700FFE79DF8170006B080BD81B0009099
:102AE00001B0704780B584B0039003980068C06857
:102AF000029003980068006901909DF80400800727
:102B0000002824D5FFE79DF80800800700281DD580
:102B1000FFE7039801686FF0020008610399012044
:102B20000877039800688069800720B1FFE7039861
:102B3000FFF7D4FF06E0039800F016F9039800F0C1
:102B40000BFAFFE7039900200877FFE7FFE79DF8FE
:102B500004004007002825D5FFE79DF8080040073E
:102B600000281ED5FFE7039801686FF00400086194
:102B700003990220087703980068806910F4407F69
:102B800004D0FFE70398FFF7A9FF06E0039800F0E1
:102B9000EBF8039800F0E0F9FFE7039900200877CD
:102BA000FFE7FFE79DF804000007002824D5FFE7B2
:102BB0009DF80800000700281DD5FFE7039801686D
:102BC0006FF00800086103990420087703980068F3
:102BD000C069800720B1FFE70398FFF77FFF06E099
:102BE000039800F0C1F8039800F0B6F9FFE70399E5
:102BF00000200877FFE7FFE79DF80400C0060028E3
:102C000025D5FFE79DF80800C00600281ED5FFE780
:102C1000039801686FF01000086103990820087795
:102C200003980068C06910F4407F04D0FFE7039860
:102C3000FFF754FF06E0039800F096F8039800F0C1
:102C40008BF9FFE7039900200877FFE7FFE79DF87E
:102C50000400C00778B1FFE79DF80800C00748B13D
:102C6000FFE7039801686FF001000861039800F026
:102C70005DFAFFE7FFE79DF804000006002810D585
:102C8000FFE79DF808000006002809D5FFE7039834
:102C900001686FF0800008610398FFF7ADFCFFE763
:102CA000FFE79DF804004006002810D5FFE79DF8D7
:102CB00008004006002809D5FFE7039801686FF077
:102CC00040000861039800F045FAFFE7FFE79DF830
:102CD00004008006002810D5FFE79DF80800800654
:102CE000002809D5FFE7039801686FF0200008610C
:102CF0000398FFF785FCFFE7FFE704B080BD000005
:102D000080B588B00790002006900590049003904D
:102D100002900798006840F20041C4F20001884226
:102D200020D1FFE7FFE70020019043F63000C4F216
:102D30000200016841F001010160006800F001003B
:102D400001900198FFE7C02002900220039000212B
:102D50000491059106900020C4F2020002A9FEF73A
:102D600007FCFFE708B080BD81B0009001B070475C
:102D700080B586B004900391029200208DF8070080
:102D8000FFE7049890F83C00012804D1FFE70220F7
:102D90008DF8170089E00499012081F83C00FFE7D5
:102DA000FFE7029800900C2800F270800099DFE89D
:102DB00001F0076D6D6D206D6D6D3A6D6D6D530099
:102DC00004980068039901F01BFA04980168886967
:102DD00040F00800886104980168886920F00400C8
:102DE00088610398026904980168886910438861C2
:102DF00050E004980068039901F078FA049801689B
:102E0000886940F40060886104980168886920F44A
:102E1000806088610398026904980168886940EAC3
:102E20000220886136E004980068039901F0D8FA1E
:102E300004980168C86940F00800C86104980168F6
:102E4000C86920F00400C861039802690498016809
:102E5000C8691043C8611DE004980068039901F037
:102E600039FB04980168C86940F40060C86104989F
:102E70000168C86920F48060C861039802690498F9
:102E80000168C86940EA0220C86103E001208DF8AA
:102E90000700FFE7FFE70499002081F83C00FFE707
:102EA0009DF807008DF81700FFE79DF8170006B0A2
:102EB00080BD000080B582B00090009820B9FFE787
:102EC00001208DF807003FE0009890F83D0040B9E0
:102ED000FFE70099002081F83C00009800F038F8E6
:102EE000FFE70099022081F83D00009951F8040B9A
:102EF00001F068F80099012081F84600FFE7009989
:102F0000012081F83E00009981F83F00009981F886
:102F10004000009981F84100FFE7FFE70099012098
:102F200081F84200009981F84300009981F844003B
:102F3000009981F84500FFE70099012081F83D00E4
:102F400000208DF80700FFE79DF8070002B080BD64
:102F500081B0009001B0704781B0009001B070471F
:102F600080B58CB00A900991099828B9FFE70A98B2
:102F700090F83E0007901CE00998042805D1FFE76F
:102F80000A9890F83F00069010E00998082805D1AB
:102F9000FFE70A9890F84000059004E00A9890F83E
:102FA00041000590FFE705980690FFE70698079017
:102FB000FFE70798012804D0FFE701208DF82F00D4
:102FC000AFE0099828B9FFE70A99022081F83E008E
:102FD0001EE00998042806D1FFE70A99022081F82B
:102FE0003F00049012E00998082806D1FFE70A99EB
:102FF000022081F84000039005E00A99022081F840
:1030000041000390FFE703980490FFE70498FFE76F
:103010000A98006809990122019201F0A5F8019827
:103020000A9909680022C4F20102914202900CD070
:10303000FFE70A9800684FF60041CBF6FE7108449E
:10304000B0FA80F040090290FFE70298C00738B15B
:10305000FFE70A980168486C40F400404864FFE7C5
:103060000A9800680021C4F2010188423CD0FFE7C1
:103070000A980068B0F1804F36D0FFE70A980068E0
:1030800040F20041C4F2000188422DD0FFE70A98C7
:10309000006840F60001C4F20001884224D0FFE736
:1030A0000A98006840F60041C4F2000188421BD033
:1030B000FFE70A98006840F20041C4F2010188422B
:1030C00012D0FFE70A98006844F20001C4F201013F
:1030D000884209D0FFE70A98006841F60001C4F26F
:1030E0000001884212D1FFE70A980068806800F06A
:1030F000070008900898062807D0FFE70A9801689B
:10310000086840F001000860FFE706E00A980168DF
:10311000086840F001000860FFE700208DF82F00EC
:10312000FFE79DF82F000CB080BD000080B582B095
:103130000190019800680021C4F20101884203D186
:10314000FFE7FEF70FFCFFE7019801F015FA02B068
:1031500080BD000081B0009001B0704782B0019046
:10316000ADF8021002B0704781B0009001B0704716
:1031700080B592B011901198006800681090119875
:103180000068C0680F901198006840690E90002098
:103190000D900C90109800F00F000D900D9888B9CC
:1031A000FFE79DF84000800600280AD5FFE79DF85C
:1031B0003C008006002804D5FFE7119801F068FB69
:1031C00002E2FFE70D98002800F0C280FFE79DF8BB
:1031D0003800C00738B9FFE7BDF83C0010F4907F15
:1031E00000F0B680FFE79DF84000C00758B1FFE748
:1031F0009DF83D00C00730B1FFE71199486C40F0E1
:1032000001004864FFE79DF84000400700280BD507
:10321000FFE79DF83800C00730B1FFE71199486C0F
:1032200040F002004864FFE79DF840008007002856
:103230000BD5FFE79DF83800C00730B1FFE71199C3
:10324000486C40F004004864FFE79DF84000000728
:10325000002811D5FFE79DF83C008006002805D422
:10326000FFE79DF83800C00730B1FFE71199486CBF
:1032700040F008004864FFE71198406C002866D0D1
:10328000FFE79DF84000800600280AD5FFE79DF87B
:103290003C008006002804D5FFE7119801F0F8FAF9
:1032A000FFE7119800684069C0F380100C901198F6
:1032B000406C0007002804D4FFE70C9800283ED09B
:1032C000FFE7119801F086FA1198006840694006FE
:1032D00000282FD5FFE7FFE7FFE71198006850E8C7
:1032E000050F20F040000B90FFE70B991198026842
:1032F00042E805100028F0D1FFE7FFE71198C06B06
:1033000098B1FFE71198C16B44F2B970C0F60000A4
:1033100008651198C06BFEF7B9F828B1FFE711985E
:10332000C06B016D8847FFE703E01198FFF71CFFB2
:10333000FFE703E01198FFF717FFFFE706E011989A
:10334000FFF712FF119900204864FFE7FFE73BE118
:103350001198006B012840F01781FFE79DF84000AD
:10336000C006002840F11081FFE79DF83C00C00630
:10337000002840F10981FFE7FFE700200A9011983B
:10338000006800680A901198006840680A900A98DE
:10339000FFE71198006840694006002840F19A80D4
:1033A000FFE71198C06B00684068ADF82600BDF8D3
:1033B0002600002875D0FFE7BDF826001199898DF9
:1033C00088426EDAFFE7BDF826001199C88511988A
:1033D000C06BC069B0F5807F58D0FFE7FFE7FFE71B
:1033E0001198006850E8030F20F480700890FFE700
:1033F00008991198026842E803100028F0D1FFE70D
:10340000FFE7FFE7FFE71198006850E8050F20F09D
:1034100001000790FFE707991198026842E805103C
:103420000028F0D1FFE7FFE7FFE7FFE7119800680A
:1034300050E8050F20F040000690FFE7069911982C
:10344000026842E805100028F0D1FFE7FFE7119974
:10345000202081F84200119900200863FFE7FFE770
:103460001198006850E8030F20F010000590FFE766
:1034700005991198026842E803100028F0D1FFE78F
:10348000FFE71198C06BFDF78BFFFFE71199022052
:1034900048631198818DC28D891A89B2FFF75EFE4B
:1034A00017E0BDF826001199898D884210D1FFE7F9
:1034B0001198C06BC069B0F5807F08D1FFE7119902
:1034C000022048631198818DFFF748FEFFE7FFE770
:1034D000FFE779E01199888DC98D401AADF8120087
:1034E0001198C08D00284ED0FFE7BDF812000028CB
:1034F00049D0FFE7FFE7FFE71198006850E8030FA6
:1035000020F490700390FFE703991198026842E855
:1035100003100028F0D1FFE7FFE7FFE7FFE711986E
:10352000006850E8050F20F001000290FFE70299C3
:103530001198026842E805100028F0D1FFE7FFE784
:103540001199202081F84200119900200863FFE7BB
:10355000FFE71198006850E8030F20F01000019079
:10356000FFE701991198026842E803100028F0D1A2
:10357000FFE7FFE71199022048631198BDF8121088
:10358000FFF7ECFDFFE71FE09DF840000006002874
:103590000AD5FFE79DF83C000006002804D5FFE7A8
:1035A000119801F007FB0FE09DF84000400600284D
:1035B0000AD5FFE79DF83C004006002804D5FFE748
:1035C000119801F051F9FFE712B080BD80B582B0CB
:1035D0000090009820B9FFE701208DF8070040E037
:1035E0000098806908B1FFE700E0FFE7009890F8D5
:1035F000410040B9FFE70099002081F840000098A1
:1036000000F034F8FFE70099242081F84100009889
:103610000168C86820F40050C860009801F0ECF917
:1036200000980168086920F49040086100980168DA
:10363000486920F02A00486100980168C86840F491
:103640000050C860009900204864009A202182F848
:103650004110009A82F84210009948638DF80700E3
:10366000FFE79DF8070002B080BD000080B590B074
:103670000F9000200E900D900C900B900A900F98D8
:10368000006841F20001C4F20101884257D1FFE70E
:10369000FFE70020099043F64400C4F202000168ED
:1036A00041F010010160006800F0100009900998D5
:1036B000FFE7FFE70020089043F63000C4F2020065
:1036C000016841F001010160006800F0010008900C
:1036D0000898FFE74FF400700A90022001900B90C9
:1036E000002006900C90032002900D90072003907C
:1036F0000E900020C4F2020004900AA90591FDF783
:1037000037FFDDF804C0029B039A049805994FF433
:10371000806ECDF828E0CDF82CC04FF0010CCDF82C
:1037200030C00D930E92FDF723FF069A25200790D7
:103730000521FEF7E5F90798FEF7D8F9FFE710B085
:1037400080BD000080B584B002900191ADF80220E8
:10375000029890F84200202817D1FFE7019820B185
:10376000FFE7BDF8020020B9FFE701208DF80F0048
:103770000FE002990020086302980199BDF8022029
:1037800001F0E6F98DF80F0003E002208DF80F003C
:10379000FFE79DF80F0004B080BD000080B582B047
:1037A00001900198006841F20001C4F201018842D1
:1037B00040F0A480FFE740F6F810C2F20000007865
:1037C000A52840F09A80FFE740F6F810C2F200000A
:1037D00000795A2840F09180FFE740F6F810C2F2D5
:1037E0000000417840F21432C2F200021170817878
:1037F0005170C1789170407878B9FFE740F23D315F
:10380000C2F200010020087040F21432C2F200023D
:1038100012200321FCF7BCFE6EE040F6F810C2F265
:1038200000004078012866D1FFE740F6F810C2F2A8
:1038300000008078000909285DD8FFE740F6F810FD
:10384000C2F20000807800F00F00092853D8FFE78B
:1038500040F6F810C2F20000C078000909284AD8E2
:10386000FFE740F6F810C2F20000C07800F00F0049
:10387000092840D8FFE740F6F811C2F20001887825
:10388000C97802094FF47A73534300F00F006422A1
:1038900010FB02300A0902EB820200EB420001F049
:1038A0000F01014440F24030C2F2000001600068A4
:1038B00004280FD3FFE740F23D31C2F2000101209E
:1038C000087040F21432C2F2000212200321FCF709
:1038D0005FFE0FE040F23D31C2F2000100200870AF
:1038E00040F21432C2F20002107012200321FCF7E1
:1038F0004FFEFFE7FFE7FFE7FFE7FFE740F2444047
:10390000C2F2000040F6F811C2F200010522FFF7F2
:1039100019FF02B080BD000084B002900191ADF8A3
:103920000220029890F84100202826D1FFE7019854
:1039300020B1FFE7BDF8020020B9FFE701208DF8B4
:103940000F001EE0019802990862BDF8020002997A
:103950008884BDF802000299C88402990020486456
:10396000029A212182F8411002990A68D16841F037
:103970008001D1608DF80F0003E002208DF80F0068
:10398000FFE79DF80F0004B07047000081B0009081
:1039900001B07047FFE7FEE780B58CB040F24430DD
:1039A000C2F20000019046F20041C4F20001016041
:1039B0000321416000218160C1604FF40022026157
:1039C0004FF4401242610176012242768276C2763D
:1039D00001774177FDF7B6FA18B1FFE7FCF700FE73
:1039E000FFE701210A910E200B900020079009911A
:1039F0000891069041F208000290049040F60C00F5
:103A0000039040F61400059040F24430C2F20000EA
:103A100002A9FCF7BFFE18B1FFE7FCF7E1FDFFE7E5
:103A200040F24430C2F20000FDF758FC18B1FFE745
:103A3000FCF7D6FDFFE740F24430C2F2000002215D
:103A4000FCF7D2FD18B1FFE7FCF7CAFDFFE740F233
:103A50004430C2F200001021FCF7C6FD18B1FFE7A8
:103A6000FCF7BEFDFFE70CB080BD000080B582B062
:103A700044F65D40C0F6000047F6C432C0F60002CE
:103A80000021019101F092FA019940F23432C2F220
:103A90000002106040F22150C0F6000047F6A0324C
:103AA000C0F6000201F082FA40F2D421C2F2000115
:103AB000086002B080BD000080B58EB000200D907F
:103AC0000C900B900A900990FFE70020089043F6B5
:103AD0003000C4F20200016841F08001016000681A
:103AE00000F0800008900898FFE7FFE700200790AB
:103AF00043F63000C4F20200016841F001010160A8
:103B0000006800F0010007900798FFE7FFE700203A
:103B1000069043F63000C4F20200016841F004014F
:103B20000160006800F0040006900698FFE700209E
:103B3000C4F2020001904FF49871009100220492A7
:103B4000FDF7F2FE009A019804990992012202926F
:103B50000A9202220B920C9109A90391FDF708FD2C
:103B6000029803994FF4806209924FF488120A92E6
:103B70000B9040F60000C4F20200FDF7F9FC049A35
:103B8000282005900521FDF7BBFF0598FDF7AEFF46
:103B90000EB080BD80B588B00021019107910691DB
:103BA000059104910391029140F2B430C2F20000F9
:103BB0004FF08042026053224260816040F2CF7237
:103BC000C26001618161FEF7B1FD18B1FFE7FCF74A
:103BD00007FDFFE74FF48050049040F2B430C2F28A
:103BE000000004A9FEF7B8FE18B1FFE7FCF7F8FCE7
:103BF000FFE700200290039040F2B430C2F20000D0
:103C000002A9FEF701FD18B1FFE7FCF7E9FCFFE7A9
:103C100008B080BD80B58EB0002100910D910C914F
:103C20000B910A91099108910791069105910491D0
:103C300003910291019140F2FC30C2F2000040F287
:103C40000042C4F20002026053224260816040F2EE
:103C5000E732C26001618161FEF768FD18B1FFE7DC
:103C6000FCF7BEFCFFE74FF480500A9040F2FC30B6
:103C7000C2F200000AA9FEF76FFE18B1FFE7FCF7D9
:103C8000AFFCFFE740F2FC30C2F20000FFF712F990
:103C900018B1FFE7FCF7A4FCFFE7002008900990AB
:103CA00040F2FC30C2F2000008A9FEF7ADFC18B1EA
:103CB000FFE7FCF795FCFFE76020019000220292ED
:103CC0000392059240F2FC30C2F2000001A9FFF716
:103CD0004FF818B1FFE7FCF783FCFFE740F2FC3038
:103CE000C2F2000001A90422FFF742F818B1FFE771
:103CF000FCF776FCFFE740F2FC30C2F20000FEF772
:103D0000FFFF0EB080BD000080B582B040F244409D
:103D1000C2F20000019041F20001C4F20101016011
:103D20004FF4E131416000218160C16001610C22EA
:103D300042618161C161FFF749FC18B1FFE7FCF7FF
:103D40004FFCFFE702B080BDFFE7FEE7FFE7FEE7BD
:103D500088B0079006910592079800F0070004903C
:103D60000498C0F10700052803D3FFE70420019061
:103D700004E00498C0F107000190FFE70198039068
:103D800004980430062803D8FFE70020009003E0E1
:103D9000049803380090FFE7009802900698039972
:103DA000012202FA01F101390840029B984005996D
:103DB0009A40013A1140084308B0704700000000E3
:103DC000EFF30980BFF36F8F154B1A681EF0100FC9
:103DD00008BF20ED108A20E9F04F10602DE909009E
:103DE0004FF0500080F31188BFF34F8FBFF36F8FF8
:103DF00002F094FD4FF0000080F31188BDE8090047
:103E000019680868B0E8F04F1EF0100F08BFB0EC5A
:103E1000108A80F30988BFF36F8F704700BF00BF1F
:103E200080050020000000000000000000000000ED
:103E3000074B19680868B0E8F04F80F30988BFF3B2
:103E40006F8F4FF0000080F31188704700BF00BFF4
:103E50008005002080B56FF00400002100F080FF95
:103E600080BD000080B544F6E850C2F20000006852
:103E700040F20431C2F2000108600020087148716C
:103E8000802088717F20C87140F24440C2F2000057
:103E90000822FFF741FD08B1FFE7FFE780BD000002
:103EA00080B54EF21000CEF20000006803F012FB65
:103EB000012803D0FFE702F041FEFFE780BD0000CC
:103EC00080B594B008A83021FCF793FA0020079041
:103ED0000690059004900390FFE70020029043F6BF
:103EE0004000C4F20200016841F0805101600068A6
:103EF00000F0805002900298FFE7FFE70020019059
:103F000047F20000C4F20000016841F48041016002
:103F1000006800F4804001900198FFE701200890BC
:103F20004FF48030099002200E904FF480010F91E1
:103F3000192110914FF4A87111911290042013903F
:103F400008A8FDF7F9FF18B1FFE7FCF749FBFFE709
:103F50000F20039002200490002005904FF4A05001
:103F600006904FF48050079003A80521FDF7EAFD65
:103F700018B1FFE7FCF734FBFFE714B080BD000089
:103F80004EF68851CEF20001086840F470000860D7
:103F90007047000080B540F26C30C2F20000FEF7BE
:103FA000A1FD80BD80B540F2B430C2F20000FEF742
:103FB00099FD80BD80B540F2FC30C2F20000FEF7F2
:103FC00091FD80BD83B0029001910298006800903D
:103FD00002980021C4F20101884225D0FFE702982F
:103FE000B0F1804F20D0FFE7029840F20041C4F2C8
:103FF0000001884218D0FFE7029840F60001C4F2A1
:104000000001884210D0FFE7029840F60041C4F258
:104010000001884208D0FFE7029840F20041C4F254
:10402000010188420AD1FFE7009820F0700000905B
:1040300001984168009808430090FFE7029800212A
:10404000C4F20101884255D0FFE70298B0F1804FD9
:1040500050D0FFE7029840F20041C4F200018842CC
:1040600048D0FFE7029840F60001C4F20001884200
:1040700040D0FFE7029840F60041C4F200018842B8
:1040800038D0FFE7029840F20041C4F201018842B3
:1040900030D0FFE7029844F20001C4F201018842E7
:1040A00028D0FFE7029844F20041C4F2010188429F
:1040B00020D0FFE7029844F60001C4F201018842D3
:1040C00018D0FFE7029841F60001C4F200018842CF
:1040D00010D0FFE7029841F60041C4F20001884287
:1040E00008D0FFE7029842F20001C4F200018842C2
:1040F0000AD1FFE7009820F4407000900198C16851
:10410000009808430090FFE7009820F08000019994
:10411000496908430090019880680299C862019833
:1041200000680299886202980021C4F20101884265
:1041300008D0FFE7029840F20041C4F20101884232
:1041400005D1FFE70198006902990863FFE702992A
:10415000086840F004000860029901204861009856
:104160000299086003B0704784B0039002910192F5
:10417000029800F01F01012088400090009A0399E6
:10418000086A904308620198029901F01F0100FA41
:1041900001F20399086A1043086204B070470000F6
:1041A00085B0049003910292019304988068009076
:1041B000009820F47F40009003980299019A41EA08
:1041C00002210143009808430090009804998860F8
:1041D00005B0704783B0029001910298806800900A
:1041E000009820F07000009001980099084340F07A
:1041F0000700009000980299886003B070470000A3
:1042000085B0049003910498006A01900499086AAB
:1042100020F00100086204984068009004988069CA
:104220000290029820F070000290029820F00300A3
:10423000029003980168029808430290019820F0C8
:104240000200019003988168019808430190049846
:104250000021C4F20101884208D0FFE7049840F22F
:104260000041C4F2010188420ED1FFE7019820F01D
:10427000080001900398C1680198084301900198D3
:1042800020F004000190FFE704980021C4F201012E
:10429000884208D0FFE7049840F20041C4F20101CF
:1042A000884213D1FFE7009820F4807000900098B6
:1042B00020F4007000900398416900980843009032
:1042C00003988169009808430090FFE700980499DB
:1042D000486002980499886103984068049948638B
:1042E00001980499086205B07047000085B00490F9
:1042F00003910498006A01900499086A20F0100064
:1043000008620498406800900498806902900298BE
:1043100020F4E0400290029820F44070029003984C
:104320000168029840EA01200290019820F02000E4
:10433000019003988168019840EA01100190049867
:104340000021C4F20101884208D0FFE7049840F23E
:104350000041C4F2010188420FD1FFE7019820F02B
:10436000800001900398C168019840EA0110019013
:10437000019820F040000190FFE704980021C4F26A
:104380000101884208D0FFE7049840F20041C4F2DE
:104390000101884215D1FFE7009820F48060009069
:1043A000009820F40060009003984169009840EA6A
:1043B0008100009003988169009840EA8100009094
:1043C000FFE700980499486002980499886103986F
:1043D00040680499886301980499086205B07047A1
:1043E00085B0049003910498006A01900499086ACA
:1043F00020F4807008620498406800900498C069B6
:104400000290029820F070000290029820F00300C1
:10441000029003980168029808430290019820F4E2
:104420000070019003988168019840EA0120019092
:1044300004980021C4F20101884208D0FFE70498E3
:1044400040F20041C4F2010188420FD1FFE7019818
:1044500020F4006001900398C168019840EA0120AF
:104460000190019820F480600190FFE704980021FA
:10447000C4F20101884208D0FFE7049840F20041ED
:10448000C4F20101884215D1FFE7009820F4805062
:104490000090009820F40050009003984169009823
:1044A00040EA0110009003988169009840EA0110E9
:1044B0000090FFE700980499486002980499C86149
:1044C000039840680499C86301980499086205B08C
:1044D0007047000085B0049003910498006A019031
:1044E0000499086A20F4805008620498406800909B
:1044F0000498C0690290029820F4E040029002986B
:1045000020F44070029003980168029840EA01206C
:104510000290019820F4005001900398816801985E
:1045200040EA0130019004980021C4F20101884260
:1045300008D0FFE7049840F20041C4F2010188422C
:104540000BD1FFE7009820F4804000900398416968
:10455000009840EA81100090FFE7009804994860B5
:1045600002980499C8610398406804990864019806
:104570000499086205B0704780B582B00190019837
:104580000068B0F1804F01D0FFE7C0E040F20800C2
:10459000C2F20000016801310160006840F20C3293
:1045A000C2F200020321FBF7F3FF40F23D30C2F2FA
:1045B00000000078012808D1FFE740F24030C2F245
:1045C00000000068032815D8FFE740F6FE11C2F28C
:1045D00000010020088040F20402C2F20002012122
:1045E000117040F2FC31C2F200010A6850630968A0
:1045F00088638CE040F6FE10C2F20000008840F2B2
:104600004031C2F200010968B0EB510F0CD9FFE74D
:1046100040F24030C2F200000068400840F6FE114F
:10462000C2F200010880FFE740F20400C2F200007D
:10463000007801282AD1FFE740F6FE10C2F2000000
:104640000088023040F24031C2F200010968B0EB4C
:10465000510F12D3FFE740F24030C2F20000006871
:10466000400840F6FE11C2F20001088040F2040149
:10467000C2F200010020087007E040F6FE11C2F20D
:104680000001088802300880FFE71DE040F6FE10B8
:10469000C2F20000008802280DD8FFE740F6FE11A4
:1046A000C2F200010020088040F20401C2F20001C1
:1046B0000120087007E040F6FE11C2F200010888F0
:1046C00002380880FFE7FFE740F6FE10C2F2000064
:1046D000018840F2E733594340F24032C2F200020F
:1046E000D2F800C04FEA5C0CB1FBFCFC40F2FC319C
:1046F000C2F20001D1F800E0CEF834C0008858437F
:1047000012685208B0FBF2F009688863FFE702B054
:1047100080BD000085B00490039102920498006A65
:1047200000900499086A20F00100086204988069EA
:104730000190019820F0F00001900299019840EA60
:1047400001100190009820F00A0000900399009851
:1047500008430090019804998861009804990862C0
:1047600005B0704785B00490039102920498006AE6
:1047700000900499086A20F010000862049880698B
:104780000190019820F4704001900299019840EA4C
:1047900001300190009820F0A0000090039900984B
:1047A00040EA0110009001980499886100980499EA
:1047B000086205B07047000080B582B00190019892
:1047C000806B009000990020C8850098FEF7CCFC13
:1047D00002B080BD84B00390FFE7FFE70398006854
:1047E00050E8030F20F490700290FFE702990398BD
:1047F000026842E803100028F0D1FFE7FFE7FFE777
:10480000FFE70398006850E8050F20F001000190D1
:10481000FFE701990398026842E805100028F0D1EB
:10482000FFE7FFE70398006B012814D1FFE7FFE7DC
:10483000FFE70398006850E8030F20F01000009095
:10484000FFE700990398026842E803100028F0D1BE
:10485000FFE7FFE7FFE70399202081F84200039973
:104860000020086304B0704780B582B001900198C1
:104870000168C86820F04000C8600199202081F8D4
:1048800041000198FFF782F8002002B080BD0000CF
:1048900080B586B00490002003900290049890F8B0
:1048A0004200222840F0A080FFE704988068B0F51D
:1048B000805F13D1FFE70498006978B9FFE7049897
:1048C000806A02900498006840686FF35F20029944
:1048D00008800499886A0230886223E00498806A1C
:1048E000039004988068B0F5805F08D0FFE70498D3
:1048F000806850B9FFE70498006930B9FFE7049871
:10490000006840680399087007E0049800684068F0
:1049100000F07F0003990870FFE70499886A01306E
:104920008862FFE70499C88D0138C8850004002813
:1049300056D1FFE704980168C86820F02000C860DD
:1049400004980168C86820F48070C8600498016801
:10495000486920F0010048610499202081F8420054
:104960000499002048630498006B012830D1FFE7C8
:10497000049900200863FFE7FFE70498006850E807
:10498000030F20F010000190FFE7019904980268DE
:1049900042E803100028F0D1FFE7FFE70498006821
:1049A0000068C00600280ED5FFE7FFE70020009052
:1049B00004980068006800900498006840680090BF
:1049C0000098FFE7FFE70498818DFEF7C7FB03E03F
:1049D0000498FEF7E3FEFFE700208DF8170007E0DC
:1049E00000208DF8170003E002208DF81700FFE784
:1049F0009DF8170006B080BD80B586B0059005987B
:104A00000068006920F44050059A1168D26810438C
:104A10000861059988680B694A69C9691843104398
:104A20000843049005980068C06849F20C61884307
:104A30000499084305990968C860059800684069A9
:104A400020F44070059A11689269104348610598F6
:104A5000006841F20001C4F20101884209D0FFE779
:104A60000598006841F20041C4F20101884204D176
:104A7000FFE7FDF7DBF9039003E0FDF7C5F90390CD
:104A8000FFE70598C069B0F5004F29D1FFE703980B
:104A90001921A0FB0101059A1368029353685A007B
:104AA000DB0FFBF7E1FB0299864648F21F53C5F284
:104AB000EB13AEFB0320420910014FF0640C02FB24
:104AC0001CEC322202EBCC02A2FB0332F82303EAF5
:104AD000521300EB4300C2F342121044886026E0F8
:104AE00003981921A0FB0101059A136801935368EB
:104AF0009A009B0FFBF7B8FB0199844648F21F52BE
:104B0000C5F2EB12ACFB02304309642003FB10CC6E
:104B1000322000EB0C10A0FB0202F02000EA521041
:104B200000EB0310C2F3431210448860FFE706B0A5
:104B300080BD000080B540F24440C2F2000040F663
:104B4000F811C2F200010522FEF7FCFD80BD000055
:104B500083B002900191ADF8022001980299886219
:104B6000BDF8020002998885BDF802000299C88547
:104B70000299002048640299222081F8420002989C
:104B8000006938B1FFE702980168C86840F4807096
:104B9000C860FFE702980168486940F00100486179
:104BA00002980168C86840F02000C860002003B087
:104BB0007047000083B00190019890F841002128CF
:104BC0003AD1FFE701988068B0F5805F13D1FFE725
:104BD0000198006978B9FFE70198006A0090009891
:104BE00000886FF35F200199096848600199086A9D
:104BF0000230086208E0019A106A411C11620078D4
:104C0000019909684860FFE70199C88C0138C88498
:104C1000000468B9FFE701980168C86820F08000C7
:104C2000C86001980168C86840F04000C860FFE7AC
:104C300000208DF80B0003E002208DF80B00FFE749
:104C40009DF80B0003B0704780B540F24440C2F2BB
:104C50000000FEF78DFA80BDFFE7FEE780B58AB061
:104C600009900020C4F2020007901021002208924F
:104C7000FCF75AFE0798089A2021FCF755FEFFE73B
:104C80000020C4F20200029010210191012204923E
:104C9000FCF74AFE02982021039100220592FCF7BE
:104CA00043FEFA20069000F019F90199059A02983E
:104CB000FCF73AFE02980399049AFCF735FE059832
:104CC00001F0D6FA01460698890044F6D842C2F2AD
:104CD0000002116000F002F9D2E7000081B08DF807
:104CE00003009DF9030000280ED4FFE79DF903108F
:104CF00001F01F02012090404A094EF20011CEF24D
:104D0000000141F82200FFE701B070474EF60C5059
:104D1000CEF200000068C0F30220704782B08DF828
:104D2000070000919DF9070000280AD4FFE70098CA
:104D300000019DF907104EF20042CEF200028854A5
:104D40000BE0009800019DF8071001F00F014EF6EE
:104D50001452CEF200028854FFE702B07047000000
:104D600082B08DF8070000919DF9070000280AD451
:104D7000FFE7009800019DF907104EF20042CEF2C5
:104D8000000288540BE0009800019DF8071001F024
:104D90000F014EF61452CEF200028854FFE702B023
:104DA0007047000083B00290029800F00700009066
:104DB0004EF60C51CEF200010868019001984FF6B2
:104DC000FF02104001900198009A40EA0220002260
:104DD000C0F2FA52104301900198086003B0704786
:104DE00080B582B0ADF806000020ADF80400ADF843
:104DF0000400FFE7BDF80400BDF80610884212DA8F
:104E0000FFE700F021F8C820FCF762FB00F012F881
:104E10004FF44870FCF75CFBFFE7BDF8040001307D
:104E2000ADF80400E6E702B080BD000080B500F0F8
:104E300001F880BD80B50020C4F202004FF48071FB
:104E40000022FCF771FD80BD80B50020C4F2020095
:104E50004FF480710122FCF767FD80BD80B582B000
:104E6000002000900190FCF78BFDFFF729F8FEF77A
:104E700023FEFEF791FDFEF78DFEFEF745FFFEF7E0
:104E8000C9FE009940F2FC30C2F20000FEF768F85B
:104E900018B1FFE7FBF7A4FBFFE740F2FC30C2F2DA
:104EA00000000421FEF75CF818B1FFE7FBF798FB60
:104EB000FFE740F2B430C2F20000FDF7D1FC18B1B8
:104EC000FFE7FBF78DFBFFE7FFF734FE00F020F86C
:104ED000FEF7CCFD00F040F8FFE7FEE780B584B0B8
:104EE0000290EFF305800390039820B1FFE76FF085
:104EF0000500019009E000200190029820B1FFE731
:104F0000029801F0F5FBFFE7FFE7019804B080BDD0
:104F100082B0EFF305800190019820B1FFE76FF0B8
:104F20000500009014E040F2DC20C2F200000068AE
:104F300048B9FFE740F2DC21C2F20001012008601D
:104F40000020009003E04FF0FF300090FFE7FFE704
:104F5000009802B07047000080B582B0EFF3058082
:104F60000190019820B1FFE76FF00500009019E073
:104F700040F2DC20C2F20000006801280DD1FFE7FA
:104F8000FEF768FF40F2DC21C2F200010220086057
:104F900001F04CFC0020009003E04FF0FF30009047
:104FA000FFE7FFE7009802B080BD0000B0B58EB00B
:104FB0000B900A91099200200690EFF305800D9066
:104FC0000D98002840F09980FFE70B98002800F02A
:104FD0009480FFE78020079018200590002008901B
:104FE0004FF0FF300490099800284DD0FFE7099852
:104FF000006820B1FFE7099800680890FFE709986A
:10500000806920B1FFE7099880690590FFE705985E
:1050100048B1FFE70598382805D8FFE709980079D7
:10502000C00718B1FFE700200C9069E009984069BB
:1050300028B1FFE70998406980080790FFE70998C1
:10504000806880B1FFE70998C0685C280BD3FFE750
:105050000998006938B1FFE70998406918B1FFE77E
:10506000012004900FE00998806858B9FFE709987B
:10507000C06838B9FFE70998006918B9FFE7002050
:105080000490FFE7FFE702E000200490FFE70498A8
:10509000012817D1FFE70B980899079A0A9BDDF8BA
:1050A00014C0DDF824E0DEF80850DEF81040EE46CB
:1050B000CEF80850CEF80440CEF800C002F0A2F9B5
:1050C000069019E00498B0B9FFE70B980899BDF86D
:1050D0001C200A9BDDF814C0EE4606ACCEF8044056
:1050E000CEF800C002F03EF9012803D0FFE700200F
:1050F0000690FFE7FFE7FFE7FFE706980C90FFE762
:105100000C980EB0B0BD000080B584B00390029141
:1051100044F6D850C2F200000068009040F280507F
:10512000C2F200000068043001F07EF808B9FFE721
:1051300000E0FFE70398013080B9FFE7029868B10B
:10514000FFE740F28050C2F200000068011D44F603
:10515000B050C2F2000001F029F93DE00098039937
:1051600008440190019840F28051C2F200010968A0
:1051700048600198009988420ED2FFE740F29050B3
:10518000C2F20000006840F28051C2F200010968DA
:10519000043101F0D5F81EE040F28850C2F2000060
:1051A000006840F28051C2F200010968043101F048
:1051B000C7F8019844F63C51C2F2000109688842E0
:1051C00007D2FFE7019844F63C51C2F200010860A3
:1051D00000E0FFE7FFE7FFE704B080BD80B582B0E5
:1051E000019001F00BF944F20C61C2F20001086871
:1051F0000130086040F28050C2F20000006898B9A7
:10520000FFE7019840F28051C2F20001086044F2C9
:105210000C60C2F200000068012803D1FFE700F033
:10522000F7FA00E0FFE71CE044F6A450C2F20000E9
:105230000068A0B9FFE740F28050C2F200000068A9
:10524000C06A0199C96A884207D8FFE7019840F20D
:105250008051C2F20001086000E0FFE700E0FFE7D4
:10526000FFE744F21860C2F20000016801310160FA
:105270000068019948640198C06A44F21C61C2F256
:1052800000010968884208D9FFE70198C06A44F222
:105290001C61C2F200010860FFE70199C86A00EBD7
:1052A000800240F29850C2F2000000EB820004310C
:1052B00001F07CF801F0CEF844F6A450C2F20000F0
:1052C0000068C8B1FFE740F28050C2F200000068F9
:1052D000C06A0199C96A88420CD2FFE74EF60451B0
:1052E000CEF200014FF080500860BFF34F8FBFF344
:1052F0006F8F00E0FFE700E0FFE702B080BD000035
:1053000080B584B001F07AF844F6DC50C2F20000B7
:105310000068002840D1FFE744F6DC40C2F20000FC
:10532000029000F0EDFF44F6F040C2F2000003905E
:1053300000F0E6FF0299039840F28452C2F20002A4
:10534000116040F29451C2F20001086069460020E9
:10535000086040F28C42C2F2000240F22C53C2F2CA
:1053600000030A20102101F007FC014644F6DC503E
:10537000C2F200000160006860B1FFE744F6DC5053
:10538000C2F20000006847F60041C0F6000101F0DB
:1053900053F900E0FFE700E0FFE701F05BF804B03D
:1053A00080BD000080B582B0FFE744F21060C2F219
:1053B0000000006808B3FFE701F020F844F6C4508D
:1053C000C2F20000C068C06801900198043000F08B
:1053D0002BFF44F20C61C2F200010868013808603A
:1053E00044F21061C2F2000108680138086001F05F
:1053F00031F8019800F08CF8D7E702B080BD0000CA
:1054000080B582B0019000910198006CB8B1FFE7BF
:105410000199C8680A6C1044C86001988168C06826
:10542000884204D3FFE701990868C86000E0FFE7FD
:105430000098019AD168126CFAF78EFFFFE702B06C
:1054400080BD000080B586B00590049103920020D5
:1054500002900598806B01900598006C78B9FFE781
:105460000598006848B9FFE70598806802F03AF9A6
:10547000029005990020886000E0FFE741E0039872
:10548000B8B9FFE7059A04995068126CFAF764FFFF
:10549000059948680A6C104448600599486889680D
:1054A000884204D3FFE705990868486000E0FFE7F9
:1054B00026E0059A0499D068126CFAF74DFF059919
:1054C000C8680A6C801AC86005980168C06888427C
:1054D00006D2FFE7059988680A6C801AC86000E068
:1054E000FFE70398022809D1FFE7019820B1FFE701
:1054F00001980138019000E0FFE700E0FFE7FFE7D7
:10550000FFE70198013005998863029806B080BDD5
:1055100080B582B00090009890F8590040B9FFE73C
:105520000098006B00F0BCFF009800F0B9FF1CE091
:10553000009890F85900012804D1FFE7009800F086
:10554000AFFF11E0009890F8590002280BD0FFE758
:105550004FF0500080F31188BFF36F8FBFF34F8F70
:105560000190FFE7FEE7FFE7FFE702B080BD000024
:1055700082B0019040F28450C2F2000000680068DE
:10558000B0FA80F04009019908600198006848B9B4
:10559000FFE740F28450C2F200000068C068006873
:1055A000009002E000200090FFE7009802B07047F2
:1055B00084B04FF47050009040F60020C2F200001A
:1055C00001909DF80400400788B1FFE7019807307B
:1055D0000190019820F007000190019A40F6002107
:1055E000C2F200010098891A08440090FFE7019870
:1055F0000290029944F6A850C2F200000160002116
:1056000041600298009A1044019001980838019076
:10561000019820F007000190019A40F28C50C2F2EC
:1056200000000260026851600268116002990391F3
:105630000199039A891A51600068039908600398D8
:10564000406844F63851C2F200010860039840688F
:1056500044F63051C2F20001086044F60451C2F22F
:1056600000014FF00040086004B0704780B582B080
:105670000190FFE7FFF796FE40F29850C2F200005B
:10568000006802280CD3FFE74EF60451CEF2000169
:105690004FF080500860BFF34F8FBFF36F8F00E073
:1056A000FFE7E7E780B584B0DDF818C0039002910A
:1056B00001928DF80330029818B9FFE70698006050
:1056C00003E0019806990860FFE703980699C8630C
:1056D0000298069908640698012101F0D5FA9DF810
:1056E0000300069981F84C0004B080BD80B588B0F5
:1056F000DDF834C0DDF830C0DDF82CC0DDF828C09E
:1057000006900591049203930C98006B049989000C
:10571000A522FAF766FE0C98006B049900EB810055
:1057200004380290029820F0070002909DF80800CB
:10573000400758B1FFE74FF0500080F31188BFF3E6
:105740006F8FBFF34F8F0790FFE7FEE70598F8B123
:10575000FFE700200190FFE701980F2813D8FFE72B
:105760000598019A805C0C99114481F834000598E1
:105770000199405C08B9FFE705E0FFE7FFE7019802
:1057800001300190E8E70C99002081F8430004E023
:105790000C99002081F83400FFE70A98382803D3D9
:1057A000FFE737200A9000E0FFE70A980C99C862EB
:1057B0000A980C99C8640C990020009008650C9810
:1057C000043000F0B5FD0C98183000F0B1FD0098E1
:1057D0000C9909610A99C1F138010C9A91610C99EF
:1057E00049620C9948650C9981F85800029806990D
:1057F000039A00F0E9FC0C9908600B9820B1FFE7D0
:105800000C980B99086000E0FFE708B080BD00002D
:1058100080B584B000200390FFE70398372810D8A4
:10582000FFE7039800EB800140F29850C2F20000BD
:1058300000EB810000F064FDFFE703980130039066
:10584000EBE744F60850C2F20000019000F058FD6A
:1058500044F61C50C2F20000029000F051FD44F6E4
:105860005050C2F2000000F04BFD44F6C450C2F2AA
:10587000000000F045FD44F6B050C2F2000000F018
:105880003FFD0199029840F28852C2F20002116075
:1058900040F29051C2F20001086004B080BD0000E7
:1058A00083B0029044F6A850C2F200000190FFE7D6
:1058B000019800680299884205D2FFE7FFE7019846
:1058C00000680190F4E701980090009801994968F8
:1058D00008440299884209D1FFE702984268019979
:1058E0004868104448600198029000E0FFE7029881
:1058F0000090009802994968084401990968884213
:1059000020D1FFE70198006840F28C51C2F20001FB
:10591000096888420DD0FFE7019800684268029943
:10592000486810444860019800680068029908605F
:1059300007E040F28C50C2F2000000680299086053
:10594000FFE704E00198006802990860FFE701980A
:105950000299884204D0FFE702980199086000E0AC
:10596000FFE703B07047000080B586B00590049152
:1059700003920293002001900498059948600598CD
:10598000006104980399884216D8FFE703980299AA
:10599000401A05998969884203D3FFE701200190E5
:1059A00009E040F29450C2F2000000680599043109
:1059B00000F0C6FCFFE717E003980299884208D27E
:1059C000FFE704980299884203D3FFE70120019082
:1059D00009E040F28450C2F20000006805990431E9
:1059E00000F0AEFCFFE7FFE7019806B080BD0000C5
:1059F00080B582B0019000F001FD0198806B18B96C
:105A0000FFE70120009002E000200090FFE700F097
:105A100021FD009802B080BD80B582B0019000F0F9
:105A2000EDFC0198806B0199C96B884203D1FFE7B7
:105A30000120009002E000200090FFE700F00AFD46
:105A4000009802B080BD000008480068006880F33C
:105A500008884FF0000080F3148862B661B6BFF387
:105A60004F8FBFF36F8F00DF00BF000008ED00E035
:105A700080B586B00490039140F28450C2F20000D9
:105A80000068C068C06801900198043000F0CCFB49
:105A9000019890F828004007002823D5FFE70198D7
:105AA000049B81691944039AFFF75EFFC0B1FFE7C9
:105AB0000198049A694600230B60194601F0FEFF25
:105AC0000290029858B9FFE74FF0500080F3118818
:105AD000BFF36F8FBFF34F8F0590FFE7FEE700E046
