:020000040800F2
:1000000090570020290200080D290008A1250008AA
:100010000929000821050008AD2E00080000000095
:10002000000000000000000000000000812900081E
:10003000790500080000000011290008D1290008F6
:10004000430200084302000843020008430200087C
:10005000430200084302000843020008430200086C
:10006000430200084302000843020008430200085C
:10007000430200084302000843020008430200084C
:10008000430200084302000843020008430200083C
:100090002505000835050008430200084302000852
:1000A00043020008AD2A000843020008430200088A
:1000B000BD2A0008CD2A00084302000843020008B8
:1000C00043020008430200084302000843020008FC
:1000D000430200089D2E0008430200084302000866
:1000E0007D0500084302000843020008430200089F
:1000F00043020008430200084302000843020008CC
:1001000043020008430200084302000843020008BB
:1001100043020008430200084302000843020008AB
:10012000430200084302000843020008430200089B
:100130004302000800000000000000004302000825
:10014000430200084302000843020008430200087B
:10015000430200084302000843020008430200086B
:10016000430200084302000843020008430200085B
:1001700043020008430200080000000000000000E5
:10018000430200084302000800F002F800F03CF8C7
:100190000AA090E8000C82448344AAF10107DA45E2
:1001A00001D100F031F8AFF2090EBAE80F0013F0F8
:1001B000010F18BFFB1A43F0010318478C4C0000D5
:1001C000AC4C0000103A24BF78C878C1FAD8520766
:1001D00024BF30C830C144BF04680C6070470000C1
:1001E0000023002400250026103A28BF78C1FBD840
:1001F000520728BF30C148BF0B6070471FB504F0DD
:10020000F1FD1FBD10B510BD00F04FF91146FFF70D
:10021000F5FF02F045FF00F06DF903B4FFF7F2FFC0
:1002200003BC00F075F90000094880470948004701
:10023000FEE7FEE7FEE7FEE7FEE7FEE7FEE7FEE796
:10024000FEE7FEE704480549054A064B70470000F3
:10025000992A000889010008904B0020905700203F
:10026000905300209053002053EA020C00F0698064
:100270002DE9F04B4FF00006002B1FBFB3FA83F5BA
:1002800003FA05F424FA05F65E4012BF1643B2FAEB
:1002900082F502FA05F4C5F120051EBF22FA05FC1D
:1002A00044EA0C04203556EA044C4FEA144418BFC3
:1002B000641C4FF000084FF00009904271EB030CF2
:1002C00039D3002919BFB1FA81F701FA07F6B0FA5C
:1002D00080F700FA07F6C7F120071EBF20FA07FCD7
:1002E00046EA0C062037B6FBF4FCA7EB0507103FE7
:1002F00007F01F0BCBF120062CFA06F60CFA0BFBCD
:1003000044BFB3460026202FA4BF5E464FF0000B2B
:100310005BEA060C08BF4FF0010B19EB0B0948EB29
:100320000608ABFB027C06FB02CC0BFB03CCC01B1C
:1003300071EB0C01C1E70B46024641464846BDE859
:10034000F08B13B5084318BF4FF0FF300146AFF3F1
:100350000080BDE81C407047032A40F2308010F056
:10036000030C00F0158011F8013BBCF1020F624450
:1003700098BF11F801CB00F8013B38BF11F8013BE1
:10038000A2F1040298BF00F801CB38BF00F8013B8E
:1003900011F0030300F05780083AC0F0088051F8CC
:1003A000043B083A51F804CBA0E80810F5E7121D09
:1003B0005CBF51F8043B40F8043BAFF30080D20728
:1003C00024BF11F8013B11F801CB48BF11F8012BF4
:1003D00024BF00F8013B00F801CB48BF00F8012B17
:1003E000704702F0FF0343EA032242EA024200F0B0
:1003F00002B84FF0000200B51346944696462039E5
:1004000022BFA0E80C50A0E80C50B1F12001BFF4CD
:10041000F7AF090728BFA0E80C5048BF0CC05DF833
:1004200004EB890028BF40F8042B08BF704748BF81
:1004300020F8022B11F0804F18BF00F8012B7047F5
:1004400070477047704710B5203AC0F00B80B1E894
:100450001850A0E81850B1E81850A0E81850203AF9
:10046000BFF4F5AF5FEA027C24BFB1E81850A0E802
:10047000185044BF18C918C0BDE810405FEA827C1C
:1004800024BF51F8043B40F8043B08BF7047D20733
:1004900028BF31F8023B48BF11F8012B28BF20F8D4
:1004A000023B48BF00F8012B7047754600F02CF85E
:1004B000AE4605006946534620F00700854618B051
:1004C00020B5FFF7BFFEBDE820404FF000064FF01B
:1004D00000074FF000084FF0000BAC46ACE8C00935
:1004E000ACE8C009ACE8C009ACE8C00921F00701DC
:1004F0008D46704710B50446AFF300802046BDE836
:100500001040FFF78ABE0000004870471800002026
:1005100001491820ABBEFEE726000200704700002C
:10052000FEE7000080B540F2E400C2F2000000F0F7
:1005300091F980BD80B540F2E400C2F2000000F005
:1005400089F980BD80B540F2B00CC2F2000C4FF0CA
:10055000040E0023CCE9010ECCE903318CF81430F1
:1005600040F2E40040F2C803C2F20000C2F200030D
:10057000614600F021F880BD7047000080B54FF45F
:10058000806000F02FFC80BD72B600BFFEE7000067
:1005900090F82020013A012A04D8006800F11402E2
:1005A000002004E000F1240201204FF480211368B0
:1005B000194311607047000010B590F820E0D0F8A2
:1005C00000C0AEF1010EBEF1010FDCF808E00ED85C
:1005D0001EF0E05F11D0CEF3016E012000FA0EF0A4
:1005E00018608B687BB1486843EAC0030DE000F1F6
:1005F000240101204FF4802223E000F12401012096
:100600004FF400121DE008684305D1E903040343D9
:100610000CEB0E10C0F88031C0F88441097D01292F
:1006200005D100F5C2710B6843F480730B6051680B
:10063000C0F88C11126800F5C071C0F88821002044
:1006400001220B681A430A6010BD0000B0B590F893
:100650002020013A012A2FD846F20060C4F200009F
:10066000026842F001020260026822F47C520260D9
:10067000D1F814E0CC694A6A0368012C43EA0222EB
:1006800002600EF01F024FF0010303FA02F2C36989
:100690006FEA020C23EA0203C36113D02CBBC368C8
:1006A00003EA0C03C360CB688C8844EA034300EB85
:1006B000CE0423640B4611E0416A41F4802141627B
:1006C0000120B0BDC3681343C3600B688C8844EA43
:1006D000034300EBCE04236401F10C038C681B88F8
:1006E00043EA044300EBCE04636443688D6943EA44
:1006F0000204D1F810E0096A002D08BF03EA0C04D7
:1007000044604369BEF1000F43EA020408BF03EAF4
:100710000C040129446102D1C1691143C16101681E
:1007200021F0010101600020B0BD00007047000011
:1007300010B590F82040013C012C0AD8046871B132
:100740002469A4070ED100F1240101204FF4001206
:1007500076E000F1240101204FF4802270E0E4688B
:10076000A40771D0046804EB011CDCF8B0410CF55F
:10077000D87E14F004049460DCF8B04119BFE4089A
:100780005460640D1460DEF800400CF5DA7E04F06D
:100790000204D460DCF8B44124075ABFDEF80040FC
:1007A00004F00F0408241461DEF800400029C4F3AB
:1007B00007249461DEF800404FEA14445461DCF8E9
:1007C000B8211A70026802EB0112D2F8B8214FEA80
:1007D00012225A70026802EB0112D2F8B8214FEAD5
:1007E00012429A70026802EB0112D2F8B8214FEA65
:1007F0001262DA70026802EB0112D2F8BC211A719F
:10080000026802EB0112D2F8BC214FEA12225A719F
:10081000026802EB0112D2F8BC214FEA12429A712F
:10082000026802EB0112D2F8BC214FEA1262DA71BF
:10083000006814BF00F1100100F10C01002020221B
:100840000B681A430A6010BD00F1240101204FF427
:100850000012F5E72DE9F04F81B0044600684669C3
:10086000D0F804908768D0F80CB0D0F810A0D0F879
:100870001880F10703D1002530071CD423E0F907C5
:1008800010D00121BA07816009D4780700F1AA804D
:10089000380700F1B080204600F038FA02E0204628
:1008A00000F036FA0025F80500F18480F80300F125
:1008B000AA80300707D51BF0100004D0206845F44B
:1008C00000751021C160700708D51BF0080005D025
:1008D00020680821C160204600F09EF9B00706D5C7
:1008E0002068C068800702D0204600F097F97006A3
:1008F00007D51AF0100004D0206845F48065102157
:100900000161B00608D51AF0080005D0206808215A
:100910000161204600F0C6F9F00606D5206800699E
:10092000800702D0204600F0BFF9B00308D519F0C7
:10093000100005D0206810214160204600F0B6F973
:10094000F00308D519F0080005D02068082141609F
:10095000204600F0E7F9300440F18F805FEA4970EB
:1009600040F1888006F4807008EA102028435FEA8E
:100970008871014648BF41F00201B20558BF0146E7
:100980005FEA48700D4648BF45F00405700558BF42
:100990000D4630056ED518F070006BD01038000988
:1009A000052862D8DFE800F0035356595C5F45F034
:1009B00008055AE020684FF48071BA0581600AD4B6
:1009C000780512D4380519D4204600F0A3F9F803AD
:1009D0007FF56FAF17E0204600F09EF9F8037FF532
:1009E00068AF10E04FF400655DE705F50055F803CA
:1009F0007FF55FAF07E04FF4805554E705F580457C
:100A0000F8037FF556AF20684FF48031BA03816058
:100A10000AD478030FD4380313D4204600F07EF9AB
:100A200030073FF548AF4EE7204600F079F9300730
:100A30003FF541AF47E705F5004530073FF53BAFD0
:100A400041E705F5803530073FF535AF3BE745F029
:100A500010050AE045F0200507E045F0400504E0F8
:100A600045F0800501E045F480752068816921F03A
:100A7000700181612068042141602DB1606A2843C2
:100A800060622046FFF752FE01B0BDE8F08F000023
:100A9000B0B5C8B1044690F8200010B9204600F067
:100AA00071F82068016841F00101016000F07EFAF0
:100AB000054600BF20684168C90707D100F076FAF3
:100AC000401B0B28F6D312E00120B0BD016821F0D5
:100AD0000201016000F06AFA054600BF2068416823
:100AE00089070DD500F062FA401B0B28F6D3606A27
:100AF000052140F400306062012084F82010B0BD70
:100B0000217E0268012922F0800208BF8032026043
:100B1000617E0268012922F0400208BF4032026073
:100B2000A17E0268012922F0200208BF2032026063
:100B3000E17E0268012922F0100218BF1032026023
:100B4000217F0268012922F0080208BF08320260F2
:100B5000617F0268012922F0040208BF04320260AA
:100B6000D4E901C2D4E9033561691A432A43114328
:100B7000ACF101021143C16100200121606284F8DF
:100B80002010B0BD80B586B046F200410068C4F2C6
:100B90000001002288420592CDE9032202920192CF
:100BA00001D006B080BD43F630000092C4F20200CE
:100BB000036943F000730361036903F0007300935A
:100BC000009B0092036843F001030360006800F09B
:100BD0000100009000984FF4C05001900220CDE930
:100BE0000202032004900920059001F5CE3001A9EE
:100BF00000F006F914200521002200F08DFA1420DF
:100C000000F07AFA15200521002200F085FA15205F
:100C100000F072FA06B080BD70470000B0B5016800
:100C200046F20042C4F20002914200D0B0BD40F250
:100C3000880540F28004C2F20005C2F200040021DF
:100C40002A462346FFF774FD0028EFD1A9682869DA
:100C500069B92A68122A0AD1042808D1206844F602
:100C60008C31C2F20001086001F09CFEB0BD042985
:100C7000DCD1696840F20212C0F201229142D5D162
:100C8000012818BFB0BD02F0A3F940F2D000C2F2B3
:100C9000000000210170207840F2D101C2F2000171
:100CA0000870B0BD7047000070470000704700003A
:100CB000B0B5044690F8200001281DD1022084F828
:100CC00020002068016821F00101016000F06EF948
:100CD000054600BF20684068C00713D000F066F9E1
:100CE000401B0B28F6D3606A40F400306062052098
:100CF00084F820000120B0BD606A40F400206062EA
:100D00000120B0BD00206062B0BD0000704700004F
:100D100070470000704700007047000070470000F7
:100D2000704700007047000070B5866D044600F003
:100D30003DF994F83510022925D105462068216C2B
:100D4000026822F016020260426922F080024261CB
:100D500009B9A16C19B1016821F0080101600168AD
:100D600021F00101016000BF20680068C0070ED0BB
:100D700000F01CF9401B0628F6D3202060650320F4
:100D800084F835000CE080206065012008E0E06D0B
:100D90003F2101FA00F0B060012084F83500002006
:100DA000002184F8341070BD90F83510022909D163
:100DB000052180F835100068016821F0010101600B
:100DC000002070478021416501207047B0F5806F99
:100DD00018BF704740F27800C2F200000121017094
:100DE0007047000080B543F61441C4F201010A685F
:100DF000024208BF80BD0860FFF7E8FF80BD000029
:100E00002DE9F04F82B000F13E4241F6004502F17B
:100E1000FF77C4F2020508224FEAB726A84208BFAE
:100E20000722072E38BF4FEAB7224FF0010A0024ED
:100E300000274FF00009009209E000BF09F1010905
:100E40000437B9F1100F04F1020400F0A6800A681B
:100E50000AFA09FC12EA0C08F0D0D1F804B00BF041
:100E6000030AAAF10102012A12D882680323CE687C
:100E700003FA04FE22EA0E02A64032438260426870
:100E8000CBF3001622EA0C0206FA09F6324342605E
:100E9000BAF1030F1DD0C26803238D6803FA04F66C
:100EA000B24305FA04F63243BAF1020FC26010D120
:100EB0006FF0030202EA59020244D2F820C007F0A0
:100EC0001C050F230E69AB402CEA0303AE403343ED
:100ED0001362026803234E68A3409A4306F003039B
:100EE000A3401A4316F4403F4FF0010A0260A5D018
:100EF000002243F644030192C4F202031A6843F647
:100F0000004E42F480421A601A68C4F2010E02F4E4
:100F100080420192019A29F003024FF6084C724474
:100F2000CFF6FF7C52F80C3007F00C060F25B540C9
:100F3000AB43009D05FA06F6334342F80C30DEF869
:100F400008204B6842EA080643F60C4CDD0258BF05
:100F500022EA0806CEF80860C4F2010CDCF8002092
:100F60009D0242EA080658BF22EA0806CCF8006053
:100F7000DEF804209D0342EA080658BF22EA08066C
:100F8000CEF80460DEF80020DB0342EA080658BF12
:100F900022EA0806CEF8006050E702B0BDE8F08F04
:100FA000002A08BF090481617047000044F2AC3098
:100FB000C2F200000068704740F2080044F2AC3111
:100FC000C2F20000C2F2000100780A681044086012
:100FD0007047000080B543F60040C4F2020001688B
:100FE00041F400710160016841F4806101600168B1
:100FF00041F480710160032000F0BAF80F2000F086
:1010000005F800F055F8002080BD0000B0B586B0AE
:10101000002543F644010195C4F202010A68044622
:1010200042F001020A60096801A801F00101019182
:101030000199694600F05CF900F08EF94DF6836184
:101040004000C4F21B31A0FB01014FF0FF3000EB68
:10105000914140F20C100022C2F20000C4F20102E1
:1010600040F2E733C0E90021C0E902530561856120
:1010700000F0BEFB0546C0B940F20C10C2F2000001
:1010800000F01CFC054680B9192000F035F80F2C43
:101090000AD819202146002200F03EF840F20C0048
:1010A000C2F20000046000E00125284606B0B0BD91
:1010B00080B582B0002043F640010190C4F20201E5
:1010C0004A6842F480424A604A6802F480420192CF
:1010D000019A00900868002240F08050086008687B
:1010E0000F2100F08050009000986FF0010000F098
:1010F00013F802B080BD0000002848BF704700F020
:101100001F01012202FA01F14EF200124009CEF253
:10111000000242F82010704710B54EF60C5CCEF27B
:10112000000CDCF80030C3F3022E8EF00704042C10
:1011300028BF0424BEF103034FF0FF3E0EFA04F46F
:1011400038BF0023A14399400EFA03F39A4300F0FD
:101150000F03043B1143634409010C3300F1604267
:10116000B0F1FF3FC8BF02F56443197010BD000025
:101170004EF60C51CEF200010A684FF6FF031A40FA
:1011800060F30A2242F0806040F0FD700860704712
:101190002DE9F041002800F08B8043F60808C4F2E6
:1011A00002080446D8F8F8030D4600F0070088420C
:1011B00007D288F8F853D8F8F80300F00700A842DF
:1011C00076D12068810717D5410705D5D8F80010DA
:1011D00041F4E051C8F80010010705D5D8F8001017
:1011E00041F46041C8F80010D8F80010A26821F05E
:1011F000F0011143C8F80010C0073FD1D8F8F80338
:1012000000F00700A84207D988F8F853D8F8F80387
:1012100000F00700A8424BD12068410707D5D8F855
:101220000010E26821F4E0511143C8F800100007F3
:1012300008D5D8F80000216920F4604040EAC100D8
:10124000C8F8000000F09CF8D8F8001044F6FE52F0
:10125000C1F30311C0F60002515C40F2000220FA13
:1012600001F140F20C00C2F200000068C2F200027C
:101270001160FFF7CBFE0020BDE8F0816068811EA1
:10128000022907D258F8081C89015CBF0120BDE87B
:10129000F08110E0012807D158F8081C89035CBFD1
:1012A0000120BDE8F08106E058F8081C890702D447
:1012B0000120BDE8F081D8F8001021F003010843B7
:1012C000C8F80000FFF772FE064641F2883700BFFB
:1012D000D8F80000616800F00C00B0EB810F8DD0F1
:1012E000FFF764FE801BB842F2D90320BDE8F0810D
:1012F0000F22026043F60802C4F20202136803F0F0
:1013000003034360136803F0F0038360136803F47E
:10131000E053C360D2F800C04FF4E05303EADC03AB
:101320000361D2F8F80300F007000860704700007E
:1013300040F2000043F60801C2F20000C4F20201CC
:101340000068096844F60E62C1F38221C0F600020B
:10135000515CC8407047000040F2000043F60801AD
:10136000C2F20000C4F202010068096844F60E628D
:10137000C1F34231C0F60002515CC8407047000022
:1013800010B543F60404C4F20204606800F00C00D7
:1013900008280AD0042819BF42F20040C0F2F40025
:1013A00047F64000C0F27D1010BD20682168236818
:1013B000490247F64001C0F27D1100F03F02C3F33D
:1013C00088105CBF42F20041C0F2F401A1FB0001B1
:1013D0000023FEF749FF21680222C1F3014102EB1D
:1013E0004101B0FBF1F010BD2DE9F04182B00028C1
:1013F00000F0A2800446007843F60006C007C4F25D
:10140000020643D0B06800F00C00042805D1306813
:1014100080033BD56068C8BB8EE0B06800F00C006C
:10142000082802D170684002F1D46568B5F5A02F94
:101430000AD0B5F5803F0BD0306820F480303060A2
:10144000306820F4802006E0306840F4802030606E
:10145000306840F480303060FFF7A8FD002D05466D
:1014600011D000BF3068800310D4FFF79FFD401BF0
:101470006428F7D922E100BFFFF798FD401B6428DC
:101480004FF0030055D830688003F5D420788007EA
:101490001AD5B06810F00C0F09D0B06800F00C003D
:1014A000082840F08A807068400200F18680306829
:1014B000800702D5E06801283ED13068216920F01C
:1014C000F80040EAC10030602078000738D4207866
:1014D00040074CD4A5695DB3B06800F00C00082843
:1014E00040F09E80012D27D07068E16900F48002F1
:1014F0008A4221D1216A00F03F028A421CD147F67C
:10150000C071626A0140B1EB821F15D1A26A00234B
:10151000CFF6FF7303EBC23200F440316FF30F02DA
:10152000914209D1E16A00F07060B0EB016F03D124
:10153000002002B0BDE8F081012002B0BDE8F081DA
:101540006069002840F20000C4F2472057D0012112
:10155000C0F8801EFFF72AFD054600BF706F8007A8
:10156000B5D4FFF723FD401B0228F7D9A6E0306C65
:1015700010F080580AD100200190306C40F080506B
:101580003064306C00F080500190019847F2000701
:10159000C4F200073868C00524D4386840F480706D
:1015A0003860FFF703FD05463868C0051AD4FFF719
:1015B000FDFC401B0228F7D980E0E068002851D0EC
:1015C0000020C4F2472001210160FFF7EFFC05462F
:1015D000306880073FF571AFFFF7E8FC401B022839
:1015E000F6D96BE0A568052D50D0012D52D0306F93
:1015F00020F001003067306F20F004004DE0002142
:10160000C0F8801EFFF7D2FC054600BF706F800750
:101610007FF55DAFFFF7CAFC401B0228F6D94DE00D
:101620000027C4F2472700203866FFF7BFFC022DD1
:1016300005460BD13068800158D5FFF7B7FC401B39
:1016400002284FF00300F5D973E700BF306880012E
:101650007FF56EAFFFF7AAFC401B02284FF0030096
:10166000F4D966E70020C4F2472000210160FFF7AB
:101670009DFC0546306880077FF526AFFFF796FC96
:10168000401B02284FF00300F4D952E7306F40F0BE
:1016900004003067306F40F001003067FFF786FCD0
:1016A000002D054641F2883714D000BF306F800707
:1016B00013D4FFF77BFC401BB842F7D9032002B0DC
:1016C000BDE8F081FFF772FC401BB8424FF0030009
:1016D0003FF62FAF306F8007F4D4B8F1000F7FF4DE
:1016E000F9AE306C20F080503064F3E604F11C0554
:1016F0002FCD08430021CFF6FF7140EA821001EBA5
:10170000C3316FF30F0140EA0560084370600120A8
:101710003866FFF74BFC0446306880013FF508AFA0
:10172000FFF744FC001B02284FF00300F4D900E748
:10173000704700007047000010B590F83C20012A67
:101740004FF0020252D0012380F83C3080F83D2057
:101750000268D2F804E0D2F808C00C682EF07003DA
:10176000234341F2FF74C4F20004A24253600DDC33
:1017700040F2FF73C4F200039A4215DCB2F1804FCD
:1017800029D040F20043C4F2000322E040F2FF33CC
:10179000C4F201039A4212DC41F60003C4F20003D2
:1017A0009A4218D0002312E040F60003C4F200036E
:1017B0009A4210D040F60043C4F2000309E044F21C
:1017C0000003C4F201039A4205D040F20043C4F280
:1017D00001039A4204D149682CF0800319439160B7
:1017E0000121002280F83D1080F83C20104610BDF9
:1017F000002804BF0120704710B5044690F83D0052
:1018000028B9002084F83C00204600F01FF8022090
:1018100084F83D002068211D01F060F9012084F862
:10182000460084F83E0084F83F0084F8400084F8C5
:10183000410084F8420084F8430084F8440084F8AE
:10184000450084F83D00002010BD000010B582B0B6
:10185000006840F20041C4F20001884213D0B0F1A8
:10186000804F28D10020019043F64000C4F20200CE
:1018700001681C2441F001010160006800F00100D2
:10188000019001980FE00020009043F64000C4F260
:10189000020001681D2441F002010160006800F0AF
:1018A000020000900098204605210022FFF734FC3A
:1018B0002046FFF721FC02B010BD000090F83D105B
:1018C00001291CBF01207047022180F83D100068EB
:1018D00041F2FF72C168C4F20002904241F001017E
:1018E000C1600DDC40F2FF71C4F20001884215DCDA
:1018F000B0F1804F29D040F20041C4F2000122E053
:1019000040F2FF31C4F20101884212DC41F60001CD
:10191000C4F20001884218D0002112E040F6000114
:10192000C4F20001884210D040F60041C4F2000128
:1019300009E044F20001C4F20101884205D040F2FE
:101940000041C4F20101884206D1816801F007011B
:10195000062904BF00207047016841F001010160C1
:101960000020704780B590F83C20012A4FF0020219
:1019700000F0C280012380F83C3080F83D20D0F890
:1019800000C04FF67772DCF8083023EA0202CCF888
:1019900008200B684F2B28DC1F2B43DD202B44D065
:1019A000302B42D0402B40F0A980D1F804E0C96828
:1019B000DCF82030DCF8202022F00102CCF82020D6
:1019C000DCF8182022F0F00242EA011123F00A02AA
:1019D00042EA0E02CCF81810CCF82020DCF80810EF
:1019E00041F0470121F030017DE06F2B25DDB3F59B
:1019F000005F46D0B3F5805F77D0702B7ED1D1E900
:101A000001E3C968DCF8082043EA0E0322F47F42B0
:101A100043EA01211143CCF80810DCF8081041F02A
:101A2000770160E00BB1102B68D1DCF8081021F0D1
:101A30007001194341F0070155E0502B34D0602B61
:101A40005CD1D1F804E0C968DCF82030DCF8202053
:101A500022F01002CCF82020DCF8182022F470428A
:101A600042EA013123F0A00242EA0E12CCF818102B
:101A7000CCF82020DCF8081041F0670121F01001BB
:101A800031E0D1E901E3C968DCF8082043EA0E033C
:101A900022F47F4243EA01211143CCF80810DCF81C
:101AA000081041F480411EE0D1F804E0C968DCF878
:101AB0002030DCF8202022F00102CCF82020DCF8D5
:101AC000182022F0F00242EA011123F00A0242EA51
:101AD0000E02CCF81810CCF82020DCF8081041F0E9
:101AE000570121F02001CCF808100022012180F8D4
:101AF0003D10002180F83C10104680BD0122F5E722
:101B00007047000070B504460068C5680669B107F3
:101B100016D515F0020113D06FF002010161012109
:101B200021778069800703D02046FFF7E9FF05E0B1
:101B3000204600F08BF8204600F0C6F90020207700
:101B4000700718D515F0040015D020686FF0040157
:101B5000016102212177806910F4407F03D0204683
:101B6000FFF7CEFF05E0204600F070F8204600F0B9
:101B7000ABF900202077300717D515F0080014D0F6
:101B800020686FF00801016104212177C069800796
:101B900003D02046FFF7B4FF05E0204600F056F8DA
:101BA000204600F091F900202077F00618D515F0B6
:101BB000100015D020686FF0100101610821217715
:101BC000C06910F4407F03D02046FFF799FF05E07D
:101BD000204600F03BF8204600F076F90020207700
:101BE000F00718BF15F0010002D1300609D412E049
:101BF00020686FF001010161204600F0FFF9300616
:101C000009D515F0800006D020686FF080010161D1
:101C10002046FFF78DFD700609D515F0400006D06F
:101C200020686FF040010161204600F0F5F9B00630
:101C30000AD515F0200008BF70BD20686FF02001A4
:101C400001612046FFF776FD70BD0000704700007F
:101C50002DE9F04190F83C30012B04BF0220BDE893
:101C6000F0814FEAB2020123032A80F83C3000F2EF
:101C7000F480DFE802F0023E7DBC036840F20047DA
:101C80001C6A1A6A24F0020422F001021A621A463F
:101C9000D3F804E052F818CF8E6843F48065C4F29C
:101CA0000107BD4244EA060405D1CE6824F00C04C5
:101CB00026F0040634430E68BD4207D1D1E905572A
:101CC0002EF4407E45EA0E0545EA070E2CF0730718
:101CD0003743C3F804E09F614F6809695F631C6282
:101CE0009F6947F008079F619F6927F004079F617C
:101CF000AFE0036840F200481C6A1A6A24F020042E
:101D000022F010021A621A46D3F804E052F818CFF3
:101D10008F6843F48065C4F20108454544EA07141E
:101D200007D1CF686FF0400624F0C00406EA07161A
:101D300034430F68454507D1D1E905562EF4406E6E
:101D40004EEA850545EA860E2CF4E64646EA072764
:101D5000C3F804E09F614F6809699F631C629F6933
:101D600047F400679F619F6927F480679F616FE078
:101D7000036840F200481C6A1A6A24F4007422F4D2
:101D800080721A621A46D3F804E052F81CCF8F68AA
:101D900043F48065C4F20108454544EA072408D1AC
:101DA000CF6840F2FF463F0224F4406427EA06066B
:101DB00034430F68454507D1D1E905562EF4405EFE
:101DC0004EEA051545EA061E2CF073063743C3F8A4
:101DD00004E0DF614F680969DF631C62DF6947F077
:101DE0000807DF61DF6927F00407DF6131E003687E
:101DF00040F20045D3F820C01A6A43F4806722F409
:101E000080521A621A465C6852F81CEFD1F80080C2
:101E10008E68C4F20105AF4204D14D6924F48044B8
:101E200044EA85142CF4005747EA06372EF4E646B8
:101E300046EA08265C60DE614E6809691E641F621E
:101E4000DF6947F40067DF61DF6927F48067DF61DE
:101E500009021368194300231160002180F83C1027
:101E60001846BDE8F0810000002804BF012070473B
:101E700010B5044690F83D0028B9002084F83C00D5
:101E8000204600F01FF8022084F83D002068211D44
:101E900000F024FE012084F8460084F83E0084F817
:101EA0003F0084F8400084F8410084F8420084F840
:101EB000430084F8440084F8450084F83D00002085
:101EC00010BD0000704700007047000041B10829B4
:101ED00009D0042914BF00F1410200F13F0204E0DF
:101EE00000F13E0201E000F140021278012A1CBF1D
:101EF00001207047022241B1082909D0042914BFEA
:101F000080F8412080F83F2004E080F83E2001E086
:101F100080F84020006801F01F010122036A02FAE4
:101F200001F123EA01020262026A0A4341F2FF71EF
:101F3000C4F20001884202620FDC40F2FF71C4F279
:101F40000001884217DCB0F1804F49D040F20041D7
:101F5000C4F20001884243D049E040F2FF32C4F2AB
:101F60000102904214DC41F60003C4F200039842DF
:101F700036D0002314E040F60001C4F2000188428C
:101F80002ED040F60041C4F20001884228D02EE055
:101F900044F20003C4F20103984221D040F200430E
:101FA000C4F20103984222D1436C884243F40043B7
:101FB0004364C2DD904207DC41F60001C4F2000137
:101FC00088420DD0002107E044F20001C4F2010173
:101FD000884205D040F20041C4F20101884206D196
:101FE000816801F00701062904BF002070470168DD
:101FF00041F00101016000207047000010B5044667
:1020000000680021C4F20101884208BFFEF7D4FF36
:10201000204600F0F9FD10BD704700007047000039
:1020200070470000B0B582B0044600680168C3681C
:10203000426901F02F05202D03F0200505D125B1BF
:10204000204600F049FE02B0B0BD5FEA017C1EBF31
:1020500002F0010E03F4907212EB0E0279D1226BA2
:10206000012A05D111F0100218BF13F0100235D16A
:102070000A0622D513F080021FD094F841102129BE
:102080002AD1A168B1F5805F03D12169002900F050
:102090004881216A4A1C226209784160E18C013939
:1020A0000A04E18418D1C16821F08001C160C168CF
:1020B00041F04001C16002B0B0BD49060CD513F03B
:1020C000400109D0C16821F04001C160202084F89E
:1020D0004100204600F062FA02B0B0BD002101913B
:1020E000016801914168019101994069400638D425
:1020F000A08DE18DE28D002A1CBF401A5FEA0041ED
:10210000EAD000BF216851E8031F226821F49071D2
:1021100042E80313002BF5D1216851E8051F22681E
:1021200021F0010142E80513002BF5D1202184F8AC
:1021300042100021216300BF216851E8031F22687B
:1021400021F0100142E80313002BF5D10221616355
:102150004CE0C80718BF13F4807059D148075DD40C
:1021600063E0E06B016849688AB2002A40D0A38D21
:102170009A423DD2E185C069B0F5807F31D000BF81
:10218000206850E8030F216820F4807041E80302C2
:10219000002AF5D1206850E8050F216820F00100E1
:1021A00041E80502002AF5D1206850E8050F2168B2
:1021B00020F0400041E80502002AF5D1202084F8F3
:1021C00042000020206300BF206850E8030F216810
:1021D00020F0100041E80302002AF5D1E06BFEF781
:1021E000A3FD02206063A08DE18D401A81B20AE058
:1021F000A18D91427FF470AFC069B0F5807F7FF40C
:102200006BAF022060632046FFF708FF02B0B0BD4D
:10221000606C40F001006064480706D5BEF1000F15
:1022200003D0606C40F002006064880706D5BEF100
:10223000000F03D0606C40F004006064BCF1000F3C
:1022400006D555EA0E0003D0606C40F008006064CB
:10225000606C00283FF440AF11F0200018BF002D43
:1022600002D0204600F038FD20684069616C00F023
:10227000400001F00801401847D000BF206850E836
:10228000030F216820F4907041E80302002AF5D181
:10229000206850E8050F216820F0010041E80502A0
:1022A000002AF5D1206B01280AD100BF206850E830
:1022B000030F216820F0100041E80302002AF5D145
:1022C000202084F8420000202063206840694006F6
:1022D00022D500BF206850E8050F216820F040009B
:1022E00041E80502002AF5D1E06BA8B142F6C941E8
:1022F000C0F600010165FEF757FD00283FF4ECAE83
:10230000E06B016D884702B0B0BD2046FFF788FE44
:102310000020606402B0B0BD2046FFF781FE02B02D
:10232000B0BD216A31F8022B6FF35F224260216257
:10233000B4E60000002804BF0120704710B5044631
:1023400090F8410028B9002084F84000204600F0B1
:1023500021F8242084F841002068C16821F400514C
:10236000C160204600F01CFD2068016921F4904105
:102370000161416921F02A014161C16841F40051C4
:10238000C16000202021606484F8411084F842106C
:10239000606310BD2DE9F04186B00024C4F2020450
:1023A0000068A4F5704200219042CDE90411CDE906
:1023B0000211019102D006B0BDE8F08143F6300071
:1023C0000091C4F2020042694FF0020842F010028C
:1023D0004261426901AD02F010020092009A009140
:1023E0000268032742F0010202600068072600F03D
:1023F0000100009000984FF400700190CDE9028137
:102400002046294604970596FEF7FAFC4FF48060B3
:10241000CDE901080120CDE90307204629460596AC
:10242000FEF7EEFC252005210022FEF775FE252093
:10243000FEF762FE06B0BDE8F081000090F8423081
:10244000202B1CBF0220704700294FF0010318BF4A
:10245000002A01D1184670470023036381622221BC
:102460008285C285436480F84210016921B1016808
:10247000CA6842F48072CA6000680023416941F072
:1024800001014161C16841F02001C16018467047F7
:1024900080B5006841F20001C4F2010188420BD00E
:1024A00040F2E41040F29C71C2F20000C2F200015E
:1024B0000522FFF7C3FF80BD40F29C70C2F200000E
:1024C0000178A529ECD101795A29E9D1427881789E
:1024D000C07840F2AC03C2F200031A7059709870D1
:1024E00072B3012ADCD19F29DAD801F00F02092A40
:1024F00098BF9F28D4D800F00F03092BD0D84FEAFB
:10250000111C4FF47A710CFB01FC642112FB01C118
:10251000000900EB8000194401EB400140F2040087
:10252000C2F200000160016829B140F2D201C2F29A
:10253000000101220A7000680428B1D3012000E0E4
:10254000002040F2D201C2F20001087040F2AC0259
:1025500040F20110C2F20002C0F201200321FDF797
:10256000F1FF9DE7034690F8410020281CBF0220A0
:10257000704700294FF0010018BF002A00D17047B2
:102580001962002021219A84DA84586483F841106A
:102590001968CA6842F08002CA607047704700003C
:1025A000FEE7000010B58AB040F2E40046F20041B8
:1025B00040F2001EC2F20000C4F2000100244FF4F9
:1025C00000234FF4401CC0F2011E032280E81600D5
:1025D000C0E90343C0E905CE8483FEF759FA002819
:1025E00018BFFDF7D1FF01200890CDE906004FF498
:1025F0001070009041F20800CDE9014040F614004F
:102600000E21039040F2E4000991C2F200006946F5
:10261000CDE90444FEF71AF8002818BFFDF7B4FF0F
:1026200040F2E400C2F20000FEF742FB002818BFAF
:10263000FDF7AAFF40F2E400C2F200000221FDF71C
:10264000A7FF002818BFFDF79FFF40F2E400C2F289
:1026500000001021FDF79CFF002818BFFDF794FF34
:102660000AB010BD80B542F6B16044F61862C0F6FB
:102670000000C0F60002002100F08CFD40F2CC0109
:10268000C2F20001086080BD70B586B0002543F637
:1026900030000595CDE90355CDE901550095C4F20B
:1026A00002000168002441F0800101600168C4F269
:1026B000020401F080010091009900950168002258
:1026C00041F00101016001684FF4987601F00101C9
:1026D000009100990095016841F0040101600068D3
:1026E0004FF4987100F00400009000982046FEF727
:1026F00057FC0220CDE9030501AD019601262046D5
:1027000029460296FEF77CFB4FF4806001904FF45F
:102710008810CDE9020604F500602946FEF770FB3B
:10272000282005210022FEF7F7FC2820FEF7E4FC14
:1027300006B070BD80B586B040F254100021C2F2E0
:1027400000004FF08042532340F2CF7CCDE90411CA
:10275000CDE90211CDE90011C0E90023C0E9021C56
:1027600001618161FFF744F8002818BFFDF70CFFF5
:102770004FF48050029040F25410C2F2000002A9BF
:10278000FFF7F0F8002818BFFDF7FEFE0020CDE9A6
:10279000000040F25410C2F200006946FEF7CCFF80
:1027A000002818BFFDF7F0FE06B080BDB0B594B0AC
:1027B00040F2004540F29C10C4F200050021C2F234
:1027C0000000532240F2E7330D91CDE90B11CDE922
:1027D0000911CDE90711CDE90511CDE90311CDE9C5
:1027E0000111C0E90052C0E9021301618161FEF7E5
:1027F000FFFF002818BFFDF7C7FE4FF480500A9076
:1028000040F29C10C2F200000AA9FFF7ABF80028C2
:1028100018BFFDF7B9FE40F29C10C2F20000FFF7AE
:1028200023FB002818BFFDF7AFFE40F29C100024E8
:10283000C2F2000008A9CDE90844FEF77DFF002898
:1028400018BFFDF7A1FE6020CDE9010440F29C1005
:10285000C2F2000001A9002203940594FFF7F8F9E1
:10286000002818BFFDF790FE40F29C14C2F200044D
:1028700001A920460422FFF7EBF9002818BFFDF755
:1028800083FE21680020A9421390CDE91100109029
:102890000F9001D014B0B0BD43F630010E90C4F2D9
:1028A00002010A6842F001020A60096801F00101B0
:1028B0000E910E99C0210F910221CDE91010CDE9A2
:1028C000120105F5FE300FA9FEF79AFA14B0B0BD5B
:1028D00080B540F2E41041F20001C2F20000C4F2FF
:1028E000010100234FF00C0C4FF4E13280E80E00A0
:1028F000C0E90333C0E905C3C361FFF71BFD00282E
:1029000018BFFDF741FE80BDFEE70000FEE70000B6
:10291000EFF30980BFF36F8F154B1A681EF0100F8D
:1029200008BF20ED108A20E9F04F10602DE9090062
:102930004FF0500080F31188BFF34F8FBFF36F8FBC
:1029400001F0A2FB4FF0000080F31188BDE8090000
:1029500019680868B0E8F04F1EF0100F08BFB0EC1F
:10296000108A80F30988BFF36F8F704700BF00BFE4
:102970002403002000000000000000000000000010
:10298000074B19680868B0E8F04F80F30988BFF377
:102990006F8F4FF0000080F31188704700BF00BFB9
:1029A0002403002080B544F68C30C2F20000006899
:1029B00040F2A401C2F200014FF0FF42C1E900025F
:1029C00040F2E410C2F200000822FFF7CBFD80BD08
:1029D00080B54EF21000CEF20000006801F0C8FF92
:1029E000012818BF01F036FC80BD000070B592B020
:1029F00006AC20463021FDF7FCFC002543F64000E4
:102A00000595CDE90355CDE901550095C4F20200C5
:102A10000168022641F080510160006800F080509A
:102A20000090009847F200000095C4F20000016891
:102A300041F480410160006800F4804000900098FB
:102A4000012006904FF4803007904FF480000D90E5
:102A500019200E904FF4A870CDE90F0604201190B4
:102A600020460C96FEF7C0FC08B172B6FEE70F20B8
:102A7000CDE901064FF4A05004904FF4805005902A
:102A800001A805210395FEF783FB10B172B600BFC4
:102A9000FEE712B070BD00004EF68850CEF2000086
:102AA000016841F4700101607047000080B540F298
:102AB0000C10C2F20000FFF725F880BD80B540F28F
:102AC0005410C2F20000FFF71DF880BD80B540F23F
:102AD0009C10C2F20000FFF715F880BDB0B540F6BB
:102AE000FF3E0568C4F2000E40F2004C7045C4F28F
:102AF000010C0FDCB0F1804F19D040F20043C4F25A
:102B00000003984213D040F60003C4F20003984239
:102B10000DD011E040F60043C4F20003984206D005
:102B2000604504D00023C4F20103984204D14B68ED
:102B300025F0700243EA020541F6FF73C4F2000378
:102B400098420DDC70451FDCB0F1804F41D040F25F
:102B50000043C4F2000398423BD040F6000321E05A
:102B600043F6FF73C4F20103984220DC42F20003F3
:102B7000C4F2000398422CD00023C4F2010398420F
:102B800027D0604525D029E040F60043C4F2000379
:102B900098421ED041F60003C4F20003984218D0B8
:102BA00041F60043C4F20003984212D016E044F20A
:102BB0000003C4F2010398420BD044F60003C4F2B0
:102BC0000103984205D044F20043C4F20103984245
:102BD00004D1CB6825F4407243EA02050A688C6888
:102BE0004B69C46240F480648262644504BF096931
:102BF0000163026825F0800142F00402194302607B
:102C0000012242610160B0BD80B50068B0F1804F23
:102C100018BF80BD00F07EF940F2D200C2F2000081
:102C20000078012806D140F20400C2F200000168D9
:102C3000032912D840F2A271C2F2000100200880DC
:102C400040F29C11C2F20001096840F2E002C2F2B7
:102C5000000210704863886380BD40F2E00CC2F24D
:102C6000000C40F2A2719CF80020C2F200010B8817
:102C700032B1022B0BD800220A808CF800200FE022
:102C800002680233B3EB520F04D20B8008E09A1EA5
:102C90000A8005E0026852080A8001228CF80020B0
:102CA0000988036840F2E7324A435908B2FBF1F35E
:102CB00040F29C11C2F2000109684B6300684008B1
:102CC000B2FBF0F0886380BD80B5806B0021C185C8
:102CD000FFF7A6F980BD000080B582B090F84210E1
:102CE00022291ED18268B2F5805F02D101690029D4
:102CF0004AD0816AB2F5805F07D00AB9026922B171
:102D00000268526802F07F0201E0026852680A70AD
:102D10000121826A11448162C18D01390A04C18591
:102D200001D002B080BD0168CA6822F02002CA60EA
:102D3000CA6822F48072CA604A6922F001024A61BC
:102D4000202180F8421000214163026B012A23D127
:102D5000016300BF016851E8031F026821F0100100
:102D600042E80313002BF5D101680A68D20606D5A4
:102D7000002201920A680192496801910199818DAE
:102D8000FFF74CF902B080BD0168826A49686FF3B1
:102D90005F2111800221BCE7FFF77AFB02B080BD02
:102DA00010B504460068D4E902C22369016921F420
:102DB000405111430161626943EA0C01E369114327
:102DC000C268194349F20C639A431143C1604169D7
:102DD000A26921F4407141F20043114340F4806242
:102DE000C4F201039A42416102D1FEF7B5FA01E053
:102DF000FEF79EFAE16963681922B1F5004FA0FB66
:102E000002011DD15A00DB0FFDF72EFA48F21F51C7
:102E1000C5F2EB11A0FB01235A096FF0630302FB1B
:102E20000300322303EBC000A0FB01014FF4F87054
:102E300000EA111000EB0210C1F3421108441BE03C
:102E40009A009B0FFDF710FA48F21F51C5F2EB11E3
:102E5000A0FB01235A096FF0630302FB0300322336
:102E600003EB0010A0FB0101F02000EA511000EB81
:102E70000210C1F3431108442168886010BD0000AE
:102E800080B540F2E41040F29C71C2F20000C2F240
:102E900000010522FFF7D2FA80BD000080B540F2A4
:102EA000E410C2F20000FFF7BDF880BDFEE70000AD
:102EB0000024C4F20204204610210022FEF770F81C
:102EC000204620210022FEF76BF844F67C25C2F252
:102ED000000500BF204610210122FEF761F82046C0
:102EE00020210022FEF75CF8FA2000F011F92046BC
:102EF00010210022FEF754F8204620210122FEF77F
:102F00004FF8002000F056FE80002860FA2000F004
:102F1000FFF8DFE72DE9F047FEF748F840F22C27ED
:102F2000C2F20007386040F2D100C2F2000040F265
:102F3000D0060278C2F2000631782AB1F9B10078E1
:102F400000F05CF8BDE8F08740F2D304C2F2000460
:102F500009B9207878B10020C4F202004FF48071E2
:102F600000220025FEF71CF840F2D400C2F2000057
:102F700000F00AFE257000203070BDE8F08740F2B6
:102F80000009C4F2020948464FF4807100224FF054
:102F90000008FEF705F840F2D40AC2F2000A5046D3
:102FA00000F0F2FD40F2D304C2F2000448464FF4B0
:102FB0008071012284F800800125FDF7F1FF396856
:102FC0005046C822257000F0DBFD3570BDE8F08763
:102FD00010B50020C4F202004FF4807100220024DA
:102FE000FDF7DEFF40F2D400C2F2000000F0CCFD9D
:102FF00040F2D300C2F20000047010BDF0B581B001
:1030000040F22C25C2F200052968044640F2D400A3
:10301000C2F2000000F0A4FD98B340F2D306C2F261
:10302000000630784FF48071012840F20000C4F2AD
:10303000020019D100220027FDF7B2FF40F2D100B3
:10304000C2F200003770002C18BF013C04700078F9
:10305000C8B1296840F2D400C2F200004FF44872AF
:1030600000F08EFD01B0F0BD01220124FDF798FFB4
:10307000296840F2D400C2F20000C822347000F087
:103080007FFD01B0F0BD40F2D000C2F20000077039
:1030900040F2D400C2F2000000F076FD01B0F0BDB5
:1030A000FDF798FFFFF7A2FCFFF7EEFAFFF77AFAB9
:1030B000FFF740FBFFF70CFCFFF778FB40F29C109A
:1030C000C2F200000021FEF701FF10B172B600BF8E
:1030D000FEE740F29C10C2F200000421FEF7F6FE6B
:1030E00008B172B6FEE740F25410C2F20000FEF7DB
:1030F000E5FB10B172B600BFFEE7FFF7C1FE00F0BE
:1031000017F8FFF7AFFA00F027F800BFFEE700005E
:10311000EFF3058100291CBF6FF005007047002800
:1031200004BF0020704780B500F0B0FE002080BDD5
:10313000EFF3058000281CBF6FF00500704740F2D8
:103140007C00C2F200000168002911BF4FF0FF307F
:10315000012101600020704710B5EFF305800028C1
:103160001CBF6FF0050010BD40F27C00C2F20000F1
:10317000016801291CBF4FF0FF3010BD4EF61F51F2
:10318000CEF2000100240C700221016000F022FF49
:10319000204610BD70B584B08E46002100280391F2
:1031A000EFF305814DD000294BD122B39369002B59
:1031B00008BF1823382B1BD81179C90718D15569B6
:1031C000946811684FEA950C002D08BF4FF0800CF1
:1031D00044B1D6685C2E04D31669002E18BF002DAA
:1031E00020D10CB9D468C4B10025002455B91DE024
:1031F000002004B070BD0124002118234FF0800C82
:1032000000259DB1946812690294CDE900326246AE
:10321000734601F039FB039013E01469B4FA84F4A7
:103220006409EDE700240125002DEBD14CB103AC7E
:1032300000931FFA8CF27346019401F0B7FA01284B
:1032400002D1039804B070BD0020E4E7F0B581B06E
:103250000D4644F67C3140F22436C2F20001C2F23F
:1032600000060F6831680446081D00F091FC601CE0
:103270000AD14DB13068011D44F65430C2F200004D
:1032800000F0F8FC01B0F0BD3068E41944600AD3E6
:1032900040F23430C2F2000000683168043100F0BE
:1032A000CBFC01B0F0BD40F22C30C2F2000000684F
:1032B0003168043100F0C0FC44F6E020C2F20000A6
:1032C00001688C4238BF046001B0F0BD2DE9F047C1
:1032D000044600F0E7FC44F2B030C2F2000001689E
:1032E00040F2243701310160C2F20007396844F628
:1032F000483A40F23C36C2F2000AC2F2000651B12E
:10330000DAF8000000283ED13868E16AC06A8842D5
:1033100098BF3C6037E03C600068012833D100254D
:10332000701900F079FC1435B5F58C6FF8D144F6BE
:10333000AC28C2F20008404600F06EFC44F6C029FA
:10334000C2F20009484600F067FC44F6F420C2F2DD
:10335000000000F061FC44F66830C2F2000000F0AA
:103360005BFC44F65430C2F2000000F055FC40F221
:103370002C30C2F20000C0F8008040F23430C2F2BB
:103380000000C0F8009044F2BC30C2F200000168B6
:1033900001310160616444F2C031C2F20001E06AAF
:1033A0000A68904288BF086000EB800006EB80004E
:1033B000211D00F05FFC00F099FCDAF8000088B1F4
:1033C0003868E16AC06A884228BFBDE8F0874EF6D7
:1033D0000450CEF200004FF080510160BFF34F8FD8
:1033E000BFF36F8FBDE8F08770B582B000F05AFC74
:1033F00044F68036C2F20006306850BB44F68024A2
:10340000C2F20004204600F007FC44F69425C2F204
:103410000005284600F000FC40F22830C2F200000F
:10342000046040F23830C2F2000040F2302240F234
:10343000D02305600025C2F20002C2F200030A2078
:103440001021009500F01EFF306010B103A100F0C4
:10345000E7FC00F04BFC02B070BD00BF546D725130
:103460000000000044F2B43540F23C3A4EF60458F5
:1034700044F6683744F2B036C2F20005C2F2000AE0
:10348000CEF200084FF08059C2F20007C2F20006E7
:1034900003E000BF204600F041FC2868C8B100F0FE
:1034A00001FCF868C468201D00F072FB3068013828
:1034B000306028680138286000F018FC94F8590042
:1034C0000228EAD00128E5D070B9206B00F026FC74
:1034D000E0E7DAF800000228DFD3C8F80090BFF375
:1034E0004F8FBFF36F8FD8E74FF0500080F31188F4
:1034F000BFF36F8FBFF34F8FFEE7000008480068EF
:10350000006880F308884FF0000080F3148862B6EA
:1035100061B6BFF34F8FBFF36F8F00DF00BF0000B6
:1035200008ED00E02DE9F04F85B0824601F034FA55
:1035300040F22039C2F20009D9F80010054688424D
:1035400049D240F22834C2F2000420680168002900
:1035500043D044F6803BC2F2000B08E0786020685C
:1035600031463F6100F068FB20680168A9B3C0687C
:10357000C768D0F800803E1D304600F009FB396A6C
:103580003846884797F828004007EDD5B869404489
:103590004045E3D88FB3DBF8000078B10020CDE9D7
:1035A0000108039701F0E4F9DBF8000001A900220B
:1035B000002300F0D5FE0028D6D102E0002000282C
:1035C000D2D14FF0500080F31188BFF36F8FBFF35B
:1035D0004F8F00BFFEE7002007E040F23831C2F213
:1035E00000010A68086001202260CAF8000028462D
:1035F000C9F8005005B0BDE8F08F4FF0500080F3DF
:103600001188BFF36F8FBFF34F8F00BFFEE700003D
:1036100081B00020009040F21000C2F2000000686B
:103620004FF0500181F31188BFF36F8FBFF34F8FBD
:10363000013001D0FEE700BF00980028FCD001B0A7
:10364000704700008AB040F2283A40F2383944F618
:103650008038C2F2000A02ACC2F20009C2F20008CD
:1036600001AE00BFDAF8000007681FB1C068D0F8EB
:1036700000B001E04FF0000B00F0FEFC2046FFF729
:1036800051FF029911B101F0D7FA7DE00546AFB1C3
:103690005D4513D301F0D0FADAF80000C068C768BE
:1036A00007F10409484600F073FA97F8280041072B
:1036B00007D400F0FE0087F8280012E0B7B100221E
:1036C0001AE0B9693F6101EB0B00A842786029D983
:1036D0005D4501D2584533D2DAF80000494600F082
:1036E000ABFA40F23839C2F2000945E0D9F80000DF
:1036F0000068B0FA80F04209D8F80000ABEB050191
:1037000000F0A2FB01F098FA00283DD14EF60450DB
:10371000CEF200004FF080510160BFF34F8FBFF336
:103720006F8F31E0A5EB0B00884209D240F23832AE
:10373000C2F2000210684946914600F07DFA1BE093
:10374000002F00F0C680D8F8000068B10020CDE955
:10375000060B089701F00CF9D8F8000006A9002222
:10376000002300F0FDFD00E0002040F23839C2F2F5
:103770000009002800F0B780396A3846884703E01E
:10378000D9F8000000F058FAD8F8000021460022CD
:1037900000F0F0FE00283FF465AF0298B0F1FF3F63
:1037A00003DCDDE903200599904702980028EBD45B
:1037B000049F786910B1381D00F0EAF93046FFF730
:1037C000B1FE02990929DFD8DFE801F00505053BC4
:1037D0003E5405053B3E97F82810039ABD6941F019
:1037E000010187F82810AB18394641F8043F83429D
:1037F0003F6104D9904238D2934203D235E0801A17
:10380000A842BDD3396A3846884797F82800400750
:10381000BAD5002F53D0D8F80000C0B30398B969C7
:10382000089708440021CDE9061001F0A1F8D8F866
:10383000000006A90022002300F092FD0028A3D179
:1038400029E097F828001DE097F8281041F00102C0
:10385000039987F82820B96139B30A18394641F825
:10386000042F82423F617FF68BAFDAF8000000F050
:10387000E3F989E797F82800810703D4384600F078
:103880004DFA81E700F0FE0087F828007CE7002071
:1038900000287FF479AF4FF0500080F31188BFF318
:1038A0006F8FBFF34F8F00BFFEE74FF0500080F3E4
:1038B0001188BFF36F8FBFF34F8F00BFFEE74FF04C
:1038C000500080F31188BFF36F8FBFF34F8F00BF9D
:1038D000FEE74FF0500080F31188BFF36F8FBFF306
:1038E0004F8F00BFFEE74FF0500080F31188BFF309
:1038F0006F8FBFF34F8F00BFFEE70000F0B581B0C0
:10390000044600F0CFF994F94560012E0FDB04F175
:10391000240500BF286850B1284601F045F9002869
:1039200018BF00F015FB70B2013E0128F2DCFF2643
:1039300084F8456000F0DAF900F0B4F994F94470C5
:10394000012F0EDB04F11005286850B1284601F064
:103950002BF9002818BF00F0FBFA78B2013F0128CC
:10396000F2DC84F8446000F0C1F901B0F0BD000061
:10397000F0B581B0044600F07FFB40F23031C2F276
:103980000001086844F6A827C2F2000780BB40F295
:10399000A472C2F20002D61D26F0070612F0070339
:1039A000A2EB060518BF324644F64C36C2F20006BA
:1039B0000020C6E900204FF47056002B18BF05F513
:1039C00070569319083B23F007030B60C3E900000E
:1039D000981A0B68C2E9003044F6DC22C2F20002F9
:1039E000106044F6D422C2F2000210600120387048
:1039F0003878002818BF4FF0004020420DD0002436
:103A000001F01AF9600712D04FF0500080F31188CE
:103A1000BFF36F8FBFF34F8FFEE75CB160071ABF34
:103A200004F1100020F0070304F1080303E020462E
:103A300001B0F0BD0023002B4FF00004E0D044F6AD
:103A4000D42CC2F2000CDCF800008342D8D844F633
:103A50004C34C2F20004266875689D420FD2326869
:103A60004AB100BF5568344616469D4207D23268B7
:103A7000002AF7D103E044F64C34C2F2000408688F
:103A80008642BCD0D4F800E03068EA1A112A2060DF
:103A90002FD3F418600708D04FF0500080F311883E
:103AA000BFF36F8FBFF34F8FFEE744F64C35C2F282
:103AB00000056260736000BF2B462D68A542FBD3F2
:103AC0005A689818A04203D160681C461044586098
:103AD0006268A018A84201D0294606E009688D4214
:103AE00003D0D5E9001010446060A342216018BFE4
:103AF0001C6044F6DC217068DCF80020C2F2000192
:103B00000B68121A9A42CCF8002038BF0A60387845
:103B1000716800284FF0000018BF41F0004130608C
:103B200044F6E820C2F2000002680EF10804716059
:103B3000511C016064E70000034643F21160C0F6C7
:103B400000004FF0807C21F0010103E903106FF0C9
:103B5000020043F8240CA3F1440043F8202C7047E2
:103B60008268002A04BF00207047D0E90023891A28
:103B700099424FF0000124BF81600121084670473F
:103B800001230EC0704700000021816070470000D3
:103B9000D0E9013201699A60D1F804C08268844595
:103BA000536008BF4A60002202610868013808605B
:103BB0000868704720B940F22430C2F20000006863
:103BC000006B0178A5291CBF00207047013000213F
:103BD000435C4A1CA52B1146FAD0C2F38F007047F4
:103BE00044F2C453C2F20003036044F2C430C2F290
:103BF00000000860802010607047000044F6202319
:103C0000C2F20003036044F22060C2F200000860C8
:103C10004FF48070106070474FF0FF31024642F859
:103C2000081F00214260C0E90322016070470000C4
:103C3000002101617047000080B5D1F800C01CF17F
:103C4000010207D000F108039E465B681A686245CE
:103C5000FAD901E0D0F810E0DEF8042008614A60EB
:103C60009160C1F808E0CEF80410016801310160EC
:103C700080BD0000D0F800C0436808619A684B60BE
:103C80008A609A68996051600CF101010160704787
:103C9000DFF80C00016841F470010160704700001A
:103CA00088ED00E04FF0500080F31188BFF36F8F74
:103CB000BFF34F8F40F21000C2F2000001684A1CAF
:103CC000026001B170474EF60450CEF20000006869
:103CD000000608BF70474FF0500080F31188BFF313
:103CE0006F8FBFF34F8F00BFFEE7000040F2100060
:103CF000C2F20000016839B10139016018BF704794
:103D0000002080F3118870474FF0500080F3118835
:103D1000BFF36F8FBFF34F8FFEE70000B0B50028F1
:103D200008BFB0BD044644F6A820C2F200000078E7
:103D300054F8041C002818BF4FF0004008420CD073
:103D4000A4F108052A6892B14FF0500080F3118861
:103D5000BFF36F8FBFF34F8FFEE74FF0500080F33C
:103D60001188BFF36F8FBFF34F8F00BFFEE721EACB
:103D7000000044F8040C00F07FF944F6D421C2F2AC
:103D8000000154F8040C0A681044086044F64C31F1
:103D9000C2F2000108460968A942FBD342688318B1
:103DA000AB4204D154F8043C05461A4442606A68A8
:103DB000AB188B4201D00B460AE040F23033C2F21E
:103DC00000031B68994203D0D1E90034A11869604F
:103DD000A8422B6018BF056044F6EC20C2F2000038
:103DE00001680131016000F027FFB0BD4EF2100004
:103DF000CEF2000000210160816040F20001C2F2B9
:103E00000001096844F6D352C1F26202A1FB02121A
:103E10004FF0FF3101EB92114160072101607047C3
:103E200044F6083C0022C2F2000C00BF5CF83230BD
:103E300023B10132082A08BF7047F7E70CEBC20331
:103E40004CF832105860704770B515460E4604465F
:103E5000FFF728FF94F84400FF2804BF002084F8EF
:103E6000440094F84500FF2804BF002084F8450072
:103E7000FFF73CFFA06B28B904F1240031462A4625
:103E800000F088F82046FFF739FD70BD70B50028B6
:103E900043D0044644F2B830C2F20000016841B198
:103EA0004FF0500080F31188BFF36F8FBFF34F8F37
:103EB000FEE7016840F224350131016044F67C30B0
:103EC000C2F20000C2F20005066828680430FFF75D
:103ED0005FFE2868A419446009D340F23430C2F26E
:103EE0000000006829680431FFF7A6FE10E040F2E8
:103EF0002C30C2F20000006829680431FFF79CFEF4
:103F000044F6E020C2F2000001688C4238BF046031
:103F100000F092FE002818BF70BD4EF60450CEF29D
:103F200000004FF080510160BFF34F8FBFF36F8FE0
:103F300070BD000044F6E421C2F20001096801608E
:103F400044F67C31C2F2000109684160704700000C
:103F500044F68830C2F20000012101607047000081
:103F600010B568B10C4640F22431C2F20001096874
:103F70001831FFF761FE20460121FFF767F910BDF8
:103F80004FF0500080F31188BFF36F8FBFF34F8F56
:103F9000FEE70000B0B590B10D4640F22431C2F208
:103FA0000001096814461831FFF764FE002C18BFA1
:103FB0004FF0FF3528462146FFF748F9B0BD4FF0D6
:103FC000500080F31188BFF36F8FBFF34F8F00BF96
:103FD000FEE7000010B586B0002405A804A903AAD6
:103FE000CDE90444FFF7FCFDDDE90320059900233A
:103FF000CDE9010143F26540C0F600001CA1009428
:1040000000F042FC44F6D821C2F20001086010B171
:1040100000F0AEFE0446601C20D0012C1CD14FF0F5
:10402000500080F31188BFF36F8FBFF34F8F44F6BA
:10403000E020C2F200004FF0FF31016044F648304A
:10404000C2F200000121016044F67C30C2F200009F
:104050000021016000F066F806B010BD4FF050007E
:1040600080F31188BFF36F8FBFF34F8FFEE700BF60
:1040700049444C450000000044F2B830C2F2000050
:10408000016801310160704744F2B830C2F20000AB
:10409000006830B144F68830C2F2000001210160AE
:1040A000704744F68830C2F20000002144F2C03C60
:1040B0000160C2F2000CDCF8001040F23C3201EB6F
:1040C0008103C2F2000252F8230048B902EB8300D8
:1040D000A0F11403D9B153F8140901390028F9D01B
:1040E00001EB810002EB800252F8040F4368101DBF
:1040F0008342136001D158681060106840F2243286
:10410000C068C2F200021060CCF8001070474FF097
:10411000500080F31188BFF36F8FBFF34F8F00BF44
:10412000FEE70000B0B584B04EF20040CEF20000D1
:104130004CF27021C4F20F11D0F800294B1C9A42A6
:1041400009D14FF0500080F31188BFF36F8FBFF398
:104150004F8F00BFFEE7D0F800298A4209D14FF007
:10416000500080F31188BFF36F8FBFF34F8F00BFF4
:10417000FEE7017844F2A4320291FF210170017838
:10418000C2F200028DF807109DF8071001F05001EF
:10419000117044F2A831C2F2000107220A609DF9B1
:1041A0000720B2F1FF3F0BDC0A68013A0A609DF874
:1041B000072052008DF807209DF90720002AF3D42C
:1041C0000A68032A3CD14FF4E06303EA02220A6042
:1041D00002990170D0F8201941F47001C0F820193B
:1041E000D0F8201941F07041C0F82019FFF7FEFD0A
:1041F00040F21004C2F2000400252560FFF748FDDC
:104200004EF63470CEF20000016841F0404101608A
:10421000FFF774F9FFF738FF039520684FF050015E
:1042200081F31188BFF36F8FBFF34F8F013001D03F
:10423000FEE700BF03980028FCD0002004B0B0BD0A
:104240004FF0500080F31188BFF36F8FBFF34F8F93
:10425000FEE7000080B54FF0500080F31188BFF3F7
:104260006F8FBFF34F8F00F09DFB30B14EF60450BF
:10427000CEF200004FF080510160002080F31188E1
:1042800080BD000070B582B068B11C46ABB1F1B919
:10429000EAB14FF0500080F31188BFF36F8FBFF386
:1042A0004F8F00BFFEE74FF0500080F31188BFF33F
:1042B0006F8FBFF34F8F00BFFEE74FF0500080F3CA
:1042C0001188BFF36F8FBFF34F8F00BFFEE751B16F
:1042D0004AB94FF0500080F31188BFF36F8FBFF3DE
:1042E0004F8F00BFFEE750230193019B502B2DD130
:1042F000019B069E0123002984F8463014BF2260EA
:104300002460C4E90F01FFF7CDFC2068D4E90F1247
:10431000002502FB0103013901FB0201A563C4E989
:104320000103FF20E16084F8440084F8450004F1B3
:104330001000FFF771FC04F12400FFF76DFCFFF79C
:10434000D5FC204684F84C6002B070BD4FF05000A0
:1043500080F31188BFF36F8FBFF34F8FFEE700002C
:104360002DE9F04F83B00292B8B11D460E460446C7
:10437000E9B1022D03D1E06B012840F0A68000F0E6
:10438000F7FA00BB0298F0B14FF0500080F31188AB
:10439000BFF36F8FBFF34F8FFEE74FF0500080F3F6
:1043A0001188BFF36F8FBFF34F8F00BFFEE7206C04
:1043B0000028DED04FF0500080F31188BFF36F8FDC
:1043C000BFF34F8FFEE7FFF76DFCA06B022D5ED0B1
:1043D000E16B88425BD304F1100801206F460DF1B8
:1043E000080900BF0299002900F08280C00702D0AE
:1043F0003846FFF79FFDFFF779FCFFF73DFEFFF71B
:1044000051FC94F84400FF2804BF002084F84400C5
:1044100094F84500FF2804BF002084F84500FFF70A
:1044200065FC3846494600F079F9002863D1FFF76A
:1044300039FCD4F838A0D4F83CB0FFF757FCDA4583
:1044400016D102994046FFF78BFD2046FFF756FA3A
:1044500000F0F2FB88B94EF60450CEF200004FF0A7
:1044600080510160BFF34F8FBFF36F8F05E000BF36
:104470002046FFF743FA00F0DFFBFFF713FCA06BC9
:10448000022D04D0E16B88424FF00000AAD2A76B46
:10449000226C22B3C5B3E0683146FBF75DFFE168EB
:1044A000206C2268091A9142E16003D2A16840425F
:1044B0000844E060A81EB0FA80F040093946002F99
:1044C00018BF012108403F1A2BE04FF0500080F345
:1044D0001188BFF36F8FBFF34F8F00BFFEE72068D7
:1044E0000025F8B9A06800F015FBA560054619E0A5
:1044F000FFF7FCFB04E02046FFF700FA00F09CFB0E
:10450000002003B0BDE8F08F60683146FBF724FF60
:10451000216CD4E9010208449042606001D3206814
:1045200060600025781CA06354F8240F78B1204601
:1045300000F03AFBB8B14EF60450CEF200004FF056
:1045400080510160BFF34F8FBFF36F8F0BE055B108
:104550004EF60450CEF200004FF080510160BFF3E0
:104560004F8FBFF36F8FFFF7C1FB012003B0BDE892
:10457000F08F00002DE9F04F85B0049298B10C4601
:104580000546002900F0B78000F0F2F9A8B90498B8
:1045900098B14FF0500080F31188BFF36F8FBFF3D5
:1045A0004F8F00BFFEE74FF0500080F31188BFF33C
:1045B0006F8FBFF34F8F00BFFEE705F11000019032
:1045C00005F1240000900DF108090DF1100A4FF0DB
:1045D00000080CE02846FFF791F900F02DFBFFF7EB
:1045E00061FBAF6BFFF782FB002F00F09280FFF7BB
:1045F00059FBD5F838B0BBF1000F27D02A6C5AB15F
:10460000D5E902101044E860884224BF2868E860B9
:10461000E9682046FBF7A0FEABF10100A86328691A
:1046200070B1019800F0C0FA50B14EF60450CEF2CD
:1046300000004FF080510160BFF34F8FBFF36F8FC9
:10464000FFF754FB00200126A0B963E0049850B1A5
:10465000B8F1000F02D14846FFF76CFC4FF001089B
:10466000012038B956E0FFF741FB00260020002862
:1046700050D000BFFFF73AFBFFF7FEFCFFF712FB3D
:1046800095F84400FF2804BF002085F8440095F801
:104690004500FF2804BF002085F84500FFF726FBF2
:1046A0004846514600F03AF800287FF493AFFFF7F0
:1046B000F9FAAF6BFFF71AFB2FB12846FFF71EF987
:1046C00000F0BAFA93E704990098FFF749FC2846EE
:1046D000FFF714F900F0B0FA00287FF488AF4EF627
:1046E0000450CEF200004FF080510160BFF34F8FB5
:1046F000BFF36F8F7BE7286C00283FF445AF4FF086
:10470000500080F31188BFF36F8FBFF34F8F00BF4E
:10471000FEE70026304605B0BDE8F08F70B5D8B191
:104720000D4611B30446FFF7BDFA44F67C3EC2F2D3
:10473000000EDEF8002029684B1C20D044F6E42C43
:10474000C2F2000CD4E90003DCF80060864218D005
:104750009A4216D3012424E04FF0500080F31188D0
:10476000BFF36F8FBFF34F8FFEE74FF0500080F322
:104770001188BFF36F8FBFF34F8F00BFFEE7002498
:104780000FE0D21A914209D9881A2860DCF800009B
:104790002060DEF800006060002402E000200124B8
:1047A0002860FFF7A3FA204670BD00002DE9F04F06
:1047B00081B0950081462846984692460F46FFF7FD
:1047C000D7F878B104465C20FFF7D2F838B1064636
:1047D000046356B94FF0FF3001B0BDE8F08F2046BA
:1047E000FFF79CFA0026002EF4D0306B4C46DDF823
:1047F00028B04FF000092946A52286F85990FBF70A
:10480000F0FD306B00EB8A00A0F1040020F0070AF5
:1048100077B106F1340000217A5C42547A5C1AB117
:104820000F2901F10101F7D3002086F8430001E0D0
:1048300086F834900025301DBBF1370F28BF4FF0AC
:10484000370BC6F82CB0C6E913B5FFF7F1F906F13E
:104850001800FFF7EDF9CBF13800B0615046214662
:10486000424636617662756586F85850FFF764F9FE
:104870000B9930603046002918BF0E60FEF726FD08
:10488000012001B0BDE8F08F2DE9F04381B017465B
:10489000099A2AB30A9D65B381465C20009000986E
:1048A0005C2830D1009802200C46089E2A6385F8C7
:1048B0005900B9001046A5229846FBF792FD286BD7
:1048C0005CB305F134010022A35C8B54A35C1BB1E3
:1048D0000F2A02F10102F7D3002185F843101FE0EF
:1048E0004FF0500080F31188BFF36F8FBFF34F8FED
:1048F000FEE74FF0500080F31188BFF36F8FBFF3D6
:104900004F8F00BFFEE74FF0500080F31188BFF3D8
:104910006F8FBFF34F8F00BFFEE7002185F8341083
:1049200000EB8700043820F007040027281D372EED
:1049300028BF3726EE62C5E91367FFF779F905F15D
:104940001800FFF775F9C6F13800A86120464946FE
:1049500042462D616D626F6585F85870FFF7ECF87F
:1049600028602846FEF7B2FC284601B0BDE8F08377
:1049700044F64830C2F200000068002804BF01205D
:10498000704744F2B830C2F200000068B0FA80F01C
:10499000400940007047000044F67C30C2F200003D
:1049A000006870472DE9F04F81B044F2B830C2F290
:1049B0000000006840B144F6F020C2F20000016837
:1049C000002401310160A0E044F67C30C2F2000016
:1049D00001684E1C06602ED340F22C30C2F200005B
:1049E0000168096849B14FF0500080F31188BFF3A6
:1049F0006F8FBFF34F8F00BFFEE740F23432C2F239
:104A00000002016813680360116044F6E421C2F2F9
:104A100000010A6801320A600168096821B1006872
:104A2000C068C068406801E04FF0FF3044F6E02104
:104A3000C2F20001086044F6E021C2F200010868F9
:104A400040F2243A40F23C388642C2F2000AC2F2F6
:104A5000000801D2002446E040F22C37C2F20007E1
:104A6000386800240068A0B344F2C03BC2F2000BD7
:104A70001AE000BFD9F82C00DBF80010884288BF8C
:104A8000CBF8000000EB800008EB80002946FFF720
:104A9000F1F8D9F82C00DAF80010C96A3A688842AF
:104AA00028BF01241068B8B13868C068D0F80C90ED
:104AB0004D4655F8040F864210D32846FFF768F894
:104AC000D9F828000028D5D009F11800FFF760F8C0
:104AD000D0E74FF0FF3005E04FF0FF3044F6E02123
:104AE000C2F200010860DAF80000C06A00EB800042
:104AF00058F82000012844F68830C2F2000088BF30
:104B000001240068002818BF0124204601B0BDE838
:104B1000F08F0000B0B580B1044640F22430C2F2FC
:104B200000000068A0420AD04FF0500080F31188C6
:104B3000BFF36F8FBFF34F8FFEE70020B0BD206D36
:104B400038B3411EE06AE26C216590424FF00000EC
:104B500008BFB0BDE1B9251D2846FFF719F8E06C84
:104B6000C0F13801A16144F2C031E062C2F200013B
:104B70000A68904288BF086040F23C3100EB800038
:104B8000C2F2000101EB80002946FFF773F8012013
:104B9000B0BD4FF0500080F31188BFF36F8FBFF3AB
:104BA0004F8F00BFFEE70000B0B5C068C5687DB19B
:104BB00005F118042046FEF7EBFF44F2B830C2F2CC
:104BC0000000006868B144F6F420C2F200001DE065
:104BD0004FF0500080F31188BFF36F8FBFF34F8FFA
:104BE000FEE72C1D2046FEF7D3FF44F2C031C2F28F
:104BF0000001E86A0A68904288BF086040F23C31D0
:104C000000EB8000C2F2000101EB80002146FFF7BB
:104C100031F840F22431C2F20001E86A0968C96A39
:104C2000884291BF002044F68831C2F20001012081
:104C300088BF0860B0BD00002DE9F04F81B044F29C
:104C4000B834C2F20004206868B1FFF72BF820687E
:104C500001382060206880B10024FFF747F8204623
:104C600001B0BDE8F08F4FF0500080F31188BFF322
:104C70006F8FBFF34F8F00BFFEE744F2B030C2F238
:104C800000000068002847D044F6F426C2F200066F
:104C9000306844F688380028C2F2000845D044F253
:104CA000C03740F23C3940F2243BC2F20007C2F266
:104CB0000009C2F2000B4FF0010A00BFF068C5689E
:104CC00005F11800FEF764FF2C1D2046FEF760FF7B
:104CD000E86A3968884288BF386000EB800009EBD9
:104CE00080002146FEF7C6FFE86ADBF80010C96ABB
:104CF000884228BFC8F800A030680028DED1A5B1DE
:104D000040F22C30C2F200000168096831B100683D
:104D1000C068C068406803E000249EE74FF0FF30A1
:104D200044F6E021C2F20001086044F6F024C2F229
:104D30000004256855B10126FFF734FE002818BF8E
:104D4000C8F80060013DF7D100202060D8F80000CD
:104D500060B14EF60450CEF200004FF08051016079
:104D6000BFF34F8F0124BFF36F8F76E7002474E702
:104D700080B586B0FEF738FB44F68030C2F2000002
:104D8000006808B30020CDE9040005A804A903AA1F
:104D9000FEF734FFDDE903200221DDF814C0CDE980
:104DA000001043F24560C0F600000CA10023CDF8CE
:104DB00008C0FFF769FD44F68431C2F200010860C3
:104DC00010B1012006B080BD4FF0500080F3118873
:104DD000BFF36F8FBFF34F8FFEE700BF546D72209C
:104DE00053766300F1EE100A4FF6FF71C0F2C03146
:104DF00020EA010040F04070E1EE100A7047000028
:104E0000000000000000010203040607080900007A
:104E100000000102030400003C4E000800000000F6
:104E20000000000000000000000000000002000080
:104E300010000000000000000000000057617465D1
:104E4000725461736B000000684E0008000000207F
:104E500018000000C4010008804E0008180000205F
:104E600078570000E00100080024F400E803000087
:104E70000100000010000000AAAAAAAA0000000079
:040000050800018965
:00000001FF
